S01500006275696C642F7769646562616E642E73313962
S113000000000320B90B0000E90B0000ED0B000019
S1130010F10B0000F50B0000F90B000000000000DC
S1130020000000000000000000000000FD0B0000C4
S1130030010C000000000000050C0000090C000089
S11300400D0C00000D0C00000D0C00000D0C000048
S11300500D0C00000D0C00000D0C00000D0C000038
S11300600D0C00000D0C00000D0C00000D0C000028
S11300700D0C00000D0C00000D0C00000D0C000018
S11300800D0C00000D0C00000D0C00000D0C000008
S11300900D0C00000D0C00000D0C00000D0C0000F8
S11300A00D0C00000D0C00000D0C00000D0C0000E8
S11300B00D0C00000D0C00000D0C00000D0C0000D8
S11300C00D0C00000D0C00000D0C00000D0C0000C8
S11300D00D0C00000D0C00000D0C00000D0C0000B8
S11300E00D0C00000D0C0000390800000D0C000080
S11300F00D0C00000D0C00000D0C00000D0C000098
S1130100C5070000E50700000D0C00000D0C000001
S11301100D0C00000D0C00000D0C00000D0C000077
S11301200D0C00000D0C00000D0C00000D0C000067
S11301300D0C00000D0C00000D0C00000D0C000057
S11301400D0C00000D0C00000D0C00000D0C000047
S11301500D0C00000D0C00000D0C00000D0C000037
S11301600D0C00008D0B00000D0C00000D0C0000A8
S11301700D0C00000D0C00000D0C00000D0C000017
S11301800D0C00000D0C00000D0C00000D0C000007
S10B01900D0C00000D0C000031
S1130400FFFFFFFFFFFFFFFFFFFFFFFFFEFFFFFFF9
S1130410064B1A7810B51C4632B9054B13B1054882
S1130420AFF300800123237010BD00BF0802FF1F3B
S113043000000000AC250000074B10B51BB10749B4
S11304400748AFF300800748036823B1064B13B194
S1130450BDE81040184710BD000000000C02FF1F4B
S1130460AC2500000802FF1F00000000134B002B06
S113047008BF114B9D46A3F5803A00218B460F46D9
S11304801148124A121A01F03BFB0D4B002B00D00D
S113049098470C4B002B00D0984700200021040003
S11304A00D000B4801F0C8FA01F0F4FA200029000D
S11304B000F02EFA01F0C6FA000008000000032044
S11304C000000000000000000802FF1F9403FF1F4B
S11304D06D1A0000344B4CF22052DA814DF628128A
S11304E0DA814FF4E9721A8003F52C3341F23801B2
S11304F09A78100742BF9A7842F008029A702B4B00
S11305005A5842F400725A5041F244024FF0927128
S1130510995041F204015A5842F480325A501A68F0
S113052042F440221A60224A936C23F0807323F42D
S1130530E06393641F4B20225A701F4A802111707C
S11305401A7B02F0FC021A73BA221A70DA7802F0EB
S11305501F02DA7013221A7118225A719A79D1067D
S1130560FCD49979134A01F00C010829F9D15823D4
S1130570537193790F4903F00C03082BF9D18A794D
S11305800C4B5206FBD52A221A709A7902F00C02FF
S11305900C2AFAD1054941F248028B5823F00F0383
S11305A043F009038B50704700200540007004405D
S11305B000900440004006400050064070B50446D8
S11305C008464FF089411E46154601F049F801F0EE
S11305D00DFA00F0F1FF4FF089412060304601F040
S11305E03FF801F003FA00F0E7FF4FF08941A06003
S11305F0284601F035F801F0F9F900F0DDFF049B1D
S1130600E360059B2361069B6361089BA361079BD1
S1130610E361099B2362002360606362A362E36277
S11306202363002070BD2DE9F04105690446284686
S11306300E4601F0B3F930B965693046294601F038
S1130640ADF900B935462946E06800F0FFFE656A59
S1130650A56206460021284600F0FAFEE56201463E
S1130660284600F0F5FE2946256300F0F1FE216AD4
S113067000F0F6FF666207462168304600F0F0FF9E
S113068029468046304600F0E1FE616800F0E8FF4C
S1130690414600F0DDFEA1680546384600F0E0FF63
S11306A0294600F0D5FEA6693146054601F094F9C5
S11306B038B9E4692846214601F070F910B125469D
S11306C000E035462846BDE8F0812DE9F0410446B6
S11306D00F46E160056911462846164601F05EF9A9
S11306E030B965693046294601F058F900B93546F4
S11306F02946384600F0AAFE656AA562064600212E
S1130700284600F0A5FEE5620146284600F0A0FE5A
S11307102946256300F09CFE216A00F0A1FF666271
S113072007462168304600F09BFF29468046304644
S113073000F08CFE616800F093FF414600F088FEF3
S1130740A1680546384600F08BFF294600F080FE7C
S1130750A6693146054601F03FF938B9E4692846EF
S1130760214601F01BF910B1254600E03546284624
S1130770BDE8F0810F4B41F23C0218600E488358EB
S113078043F4000383500D4B00221A600122C3F886
S11307900011C3F80C210222C3F80821D3F8082160
S11307A042F00102C3F80821054B4FF480325A602D
S11307B062B67047C802FF1F007004400070034017
S11307C000E100E008B572B6044B0122C3F80C2125
S11307D0034B1B68984762B608BD00BF0070034016
S11307E0C802FF1F08B572B6044B0122C3F81C21CE
S11307F0034B1B68984762B608BD00BF00700340F6
S1130800C802FF1F084B094A1968094B1B68B3FB50
S1130810F1F358436423B0FBF3F080B21062054B4C
S1130820B3FBF1F3936070472802FF1F008003407D
S11308309801FF1F80963801064A136823F080034D
S11308401360054B1A68FE2A9EBF1A6801321A60AB
S1130850704700BF008003402402FF1F0000000017
S113086038B5234B1C88988800B200F0A5FE00F030
S113087033FB1DA3D3E9002300F082FB00221D4BB0
S113088000F0A8FC00F08EFD1B4B014618601B48CD
S1130890FFF7C9FE01F0AAF800F08EFE184BA4B2CF
S11308A01860054620B200F087FE00F015FB0EA389
S11308B0D3E9002300F064FB00220E4B00F08AFC15
S11308C000F070FD0F4B014618602A460E48FFF7F2
S11308D0FCFE01F08BF80D4B1860BDE83840FFF7C3
S11308E091BF00BFAFF300806666666666660A4025
S11308F08003FF1F00003240D002FF1F4C03FF1F84
S11309000C03FF1F4803FF1FD402FF1F4403FF1FF4
S11309102DE9F04FDFF8CCA15A4D5B4CDFF8C881CC
S1130920DFF8C8B141F238094FF480775AF809303A
S113093043F410534AF809306B6943F4C0036B6104
S1130940636943F080636361504BC8F85870C8F81A
S113095054709F666B6943F4C0036B61636943F031
S113096080636361A36843F08063A3606B6843F4AE
S11309700013ADF20C4D6B6000F0BAF8444B454ADD
S11309801B68454918468B4208BF1046434B0593E4
S1130990434B0493434B0293434B01930026434B35
S11309A007903246039600934FF07C515B464048D3
S11309B0FFF704FE394B05933E4B03934FF07E53F0
S11309C002933D4B0196324600934FF07C513346DF
S11309D0CDF810B03948FFF7F1FD304B0593304B9B
S11309E00493344B039632460193009633463449BC
S11309F0CDF808B03348FFF7E1FD334A334800230C
S1130A001360334A1660334A334E136033604FF435
S1130A107A71079B93FBF1F1FFF7ACFE5AF80930AA
S1130A2043F410534AF809306B6943F4C0036B6113
S1130A30636943F080636361144BC8F85870C8F865
S1130A4054709F666B69254F43F4C0036B616369FF
S1130A5043F080636361386800F03EFA0B46024657
S1130A60CDE902233168009108A81D4901F0FAF884
S1130A70EB6843F48003EB60636843F08063636076
S1130A80E9E700BF40F00F4000F10F4000D0044000
S1130A909801FF1F00879303000E27076F12833A04
S1130AA00000C842000020420000F0420000A042C2
S1130AB01003FF1F0AD723BC6666E63E4C03FF1FE4
S1130AC0CDCCCC3DD402FF1F0803FF1F61080000FA
S1130AD04803FF1F8803FF1F4403FF1FD002FF1FAB
S1130AE0102500000070044000A004400AD7233CF5
S1130AF010B541F23002204920488B5843F000637E
S1130B008B50002303601E4B6C229A6080225A6231
S1130B101A46546A1A4B14F08004FAD1D96C9A6CB0
S1130B200A44596C0A44196C0A44D96B0A44996BF7
S1130B300A44520842F40042DA62D96E9A6E0A44B8
S1130B40596E0A44196E0A44D96D0A44996D0A44CF
S1130B50520842F400421A631A6A0A4942F04002F7
S1130B601A62046002688A5C1A60074B4FF40072D0
S1130B709A6062B610BD00BF007004408C03FF1F72
S1130B8000B00B406B25000000E100E072B6074B9B
S1130B901A68042A02DC1A68002A06DA00221A609B
S1130BA01B68034AD25C034B1A6070478C03FF1F17
S1130BB06B25000000B00B400649074A074B9B1AFF
S1130BC003DD043BC858D050FBDC0548804705488A
S1130BD000470000B82500009801FF1F0802FF1F0E
S1130BE0D50400006D040000FEE700BFFEE700BF6F
S1130BF0FEE700BFFEE700BFFEE700BFFEE700BF61
S1130C00FEE700BFFEE700BFFEE700BFFEE700BF50
S1130C1081F0004102E000BF83F0004330B54FEAA9
S1130C2041044FEA430594EA050F08BF90EA020F16
S1130C301FBF54EA000C55EA020C7FEA645C7FEAA9
S1130C40655C00F0E2804FEA5454D4EB5555B8BFCC
S1130C506D420CDD2C4480EA020281EA030382EA3D
S1130C60000083EA010180EA020281EA0303362DCF
S1130C7088BF30BD11F0004F4FEA01314FF4801CA2
S1130C804CEA113102D0404261EB410113F0004FB4
S1130C904FEA03334CEA133302D0524263EB43036B
S1130CA094EA050F00F0A780A4F10104D5F1200E09
S1130CB00DDB02FA0EFC22FA05F2801841F1000164
S1130CC003FA0EF2801843FA05F359410EE0A5F138
S1130CD020050EF1200E012A03FA0EFC28BF4CF069
S1130CE0020C43FA05F3C01851EBE37101F000451F
S1130CF007D54FF0000EDCF1000C7EEB00006EEB2C
S1130D000101B1F5801F1BD3B1F5001F0CD34908B5
S1130D105FEA30004FEA3C0C04F101044FEA44520C
S1130D2012F5800F80F09A80BCF1004F08BF5FEA93
S1130D30500C50F1000041EB045141EA050130BD73
S1130D405FEA4C0C404141EB010111F4801FA4F116
S1130D500104E9D191F0000F04BF01460020B1FA6B
S1130D6081F308BF2033A3F10B03B3F120020CDAA3
S1130D700C3208DD02F1140CC2F10C0201FA0CF081
S1130D8021FA02F10CE002F11402D8BFC2F1200CE6
S1130D9001FA02F120FA0CFCDCBF41EA0C0190409C
S1130DA0E41AA2BF01EB0451294330BD6FEA0404E5
S1130DB01F3C1CDA0C340EDC04F11404C4F12002D0
S1130DC020FA04F001FA02F340EA030021FA04F3E2
S1130DD045EA030130BDC4F10C04C4F1200220FA39
S1130DE002F001FA04F340EA0300294630BD21FA77
S1130DF004F0294630BD94F0000F83F4801306BF3D
S1130E0081F480110134013D4EE77FEA645C18BF30
S1130E107FEA655C29D094EA050F08BF90EA020FC7
S1130E2005D054EA000C04BF1946104630BD91EABF
S1130E30030F1EBF0021002030BD5FEA545C05D1C2
S1130E404000494128BF41F0004130BD14F5800401
S1130E503CBF01F5801130BD01F0004545F0FE4175
S1130E6041F470014FF0000030BD7FEA645C1ABFAA
S1130E70194610467FEA655C1CBF0B46024650EAE1
S1130E80013406BF52EA033591EA030F41F400210D
S1130E9030BD00BF90F0000F04BF0021704730B593
S1130EA04FF4806404F132044FF000054FF0000168
S1130EB050E700BF90F0000F04BF0021704730B529
S1130EC04FF4806404F1320410F0004548BF4042FE
S1130ED04FF000013EE700BF42004FEAE2014FEA53
S1130EE031014FEA02701FBF12F07F4393F07F4F2E
S1130EF081F06051704792F0000F14BF93F07F4F60
S1130F00704730B54FF4607401F0004521F00041A2
S1130F1020E700BF50EA010208BF704730B54FF028
S1130F2000050AE050EA010208BF704730B511F02D
S1130F30004502D5404261EB41014FF4806404F165
S1130F4032045FEA915C3FF4DCAE4FF003025FEAE7
S1130F50DC0C18BF03325FEADC0C18BF033202EB6F
S1130F60DC02C2F1200300FA03FC20FA02F001FAC9
S1130F7003FE40EA0E0021FA02F11444C1E600BF68
S1130F8070B54FF0FF0C4CF4E06C1CEA11541DBF1B
S1130F901CEA135594EA0C0F95EA0C0F00F0DEF8E6
S1130FA02C4481EA030621EA4C5123EA4C5350EACB
S1130FB0013518BF52EA033541F4801143F480131C
S1130FC038D0A0FB02CE4FF00005E1FB02E506F0AD
S1130FD00042E0FB03E54FF00006E1FB03569CF002
S1130FE0000F18BF4EF0010EA4F1FF04B6F5007F08
S1130FF064F5407404D25FEA4E0E6D4146EB06067A
S113100042EAC62141EA55514FEAC52040EA5E5002
S11310104FEACE2EB4F1FD0C88BFBCF5E06F1ED8AC
S1131020BEF1004F08BF5FEA500E50F1000041EBE3
S1131030045170BD06F0004646EA010140EA020090
S113104081EA0301B4EB5C04C2BFD4EB0C0541EAB2
S1131050045170BD41F480114FF0000E013C00F3C7
S1131060AB8014F1360FDEBF002001F0004170BDEB
S1131070C4F10004203C35DA0C341BDC04F1140404
S1131080C4F1200500FA05F320FA04F001FA05F290
S113109040EA020001F0004221F0004110EBD3705D
S11310A021FA04F642EB06015EEA430E08BF20EA89
S11310B0D37070BDC4F10C04C4F1200500FA04F32C
S11310C020FA05F001FA04F240EA020001F00041BE
S11310D010EBD37041F100015EEA430E08BF20EA31
S11310E0D37070BDC4F1200500FA05F24EEA020E79
S11310F020FA04F301FA05F243EA020321FA04F0A8
S113110001F0004121FA04F220EA020000EBD3705E
S11311105EEA430E08BF20EAD37070BD94F0000F5E
S11311200FD101F00046400041EB010111F4801F92
S113113008BF013CF7D041EA060195F0000F18BF43
S1131140704703F00046520043EB030313F4801F7F
S113115008BF013DF7D043EA0603704794EA0C0F39
S11311600CEA135518BF95EA0C0F0CD050EA41064F
S113117018BF52EA4306D1D181EA030101F00041CC
S11311804FF0000070BD50EA410606BF10461946F4
S113119052EA430619D094EA0C0F02D150EA013600
S11311A013D195EA0C0F05D152EA03361CBF104641
S11311B019460AD181EA030101F0004141F0FE41E0
S11311C041F470014FF0000070BD41F0FE4141F464
S11311D0780170BD70B54FF0FF0C4CF4E06C1CEA64
S11311E011541DBF1CEA135594EA0C0F95EA0C0F19
S11311F000F0A7F8A4EB050481EA030E52EA0335D4
S11312004FEA013100F088804FEA03334FF08055F4
S113121045EA131343EA12634FEA022245EA111521
S113122045EA10654FEA00260EF000419D4208BFD2
S1131230964244F1FD0404F5407402D25B084FEA7F
S11312403202B61A65EB03055B084FEA32024FF42B
S113125080104FF4002CB6EB020E75EB030E22BF88
S1131260B61A754640EA0C005B084FEA3202B6EB48
S1131270020E75EB030E22BFB61A754640EA5C00F7
S11312805B084FEA3202B6EB020E75EB030E22BF87
S1131290B61A754640EA9C005B084FEA3202B6EB88
S11312A0020E75EB030E22BFB61A754640EADC0047
S11312B055EA060E18D04FEA051545EA16754FEAA9
S11312C006164FEAC30343EA52734FEAC2025FEAC7
S11312D01C1CC0D111F4801F0BD141EA00014FF056
S11312E000004FF0004CB6E711F4801F04BF014327
S11312F00020B4F1FD0C88BFBCF5E06F3FF6AFAE43
S1131300B5EB030C04BFB6EB020C5FEA500C50F1D2
S1131310000041EB045170BD0EF0004E4EEA113155
S113132014EB5C04C2BFD4EB0C0541EA045170BD5C
S113133041F480114FF0000E013C90E645EA060EA0
S11313408DE60CEA135594EA0C0F08BF95EA0C0FCE
S11313503FF43BAF94EA0C0F0AD150EA01347FF416
S113136034AF95EA0C0F7FF425AF104619462CE7ED
S113137095EA0C0F06D152EA03353FF4FDAE104650
S1131380194622E750EA410618BF52EA43067FF4A1
S1131390C5AE50EA41047FF40DAF52EA43057FF431
S11313A0EBAE12E74FEA4102B2F1E04324BFB3F5DA
S11313B0001CDCF1FE5C0DD901F0004C4FEAC002C8
S11313C04CEA5070B2F1004F40EB830008BF20F0AC
S11313D00100704711F0804F21D113F13872BCBF66
S11313E001F00040704741F480114FEA5252C2F1BB
S11313F01802C2F1200C10FA0CF320FA02F018BF04
S113140040F001004FEAC1234FEAD32303FA0CFC56
S113141040EA0C0023FA02F34FEA4303CCE77FEAE5
S1131420625307D150EA01331EBF4FF0FE4040F42F
S11314304000704701F0004040F0FE4040F40000DE
S1131440704700BF80F0004002E000BF81F000411F
S113145042001FBF5FEA410392EA030F7FEA226C56
S11314607FEA236C6AD04FEA1262D2EB1363C1BFE6
S1131470D218414048404140B8BF5B42192B88BF55
S1131480704710F0004F40F4000020F07F4018BF78
S1131490404211F0004F41F4000121F07F4118BF98
S11314A0494292EA030F3FD0A2F1010241FA03FC40
S11314B010EB0C00C3F1200301FA03F100F0004328
S11314C002D5494260EB4000B0F5000F13D3B0F1F0
S11314D0807F06D340084FEA310102F10102FE2A5F
S11314E051D2B1F1004F40EBC25008BF20F00100CF
S11314F040EA03007047490040EB000010F4000F7D
S1131500A2F10102EDD1B0FA80FCACF1080CB2EB0F
S11315100C0200FA0CF0AABF00EBC250524218436E
S1131520BCBFD0401843704792F0000F81F4000113
S113153006BF80F400000132013BB5E74FEA4103E6
S11315407FEA226C18BF7FEA236C21D092EA030F52
S113155004D092F0000F08BF0846704790EA010FCC
S11315601CBF0020704712F07F4F04D1400028BFF9
S113157040F00040704712F100723CBF00F50000DB
S1131580704700F0004343F0FE4040F40000704711
S11315907FEA226216BF08467FEA236301464202BD
S11315A006BF5FEA412390EA010F40F480007047D0
S11315B04FF0000304E000BF10F0004348BF404276
S11315C05FEA000C08BF704743F0964301464FF0B2
S11315D000001CE050EA010208BF70474FF000030E
S11315E00AE000BF50EA010208BF704711F000434F
S11315F002D5404261EB41015FEA010C02BF84461F
S11316000146002043F0B64308BFA3F18053A3F57D
S11316100003BCFA8CF2083AA3EBC25310DB01FAC4
S113162002FC634400FA02FCC2F12002BCF1004F48
S113163020FA02F243EB020008BF20F001007047D9
S113164002F1200201FA02FCC2F1200250EA4C002D
S113165021FA02F243EB020008BF20EADC70704773
S11316604FF0FF0C1CEAD0521EBF1CEAD15392EA81
S11316700C0F93EA0C0F6FD01A4480EA010C40025D
S113168018BF5FEA41211ED04FF0006343EA5010B7
S113169043EA5111A0FB01310CF00040B1F5000FF9
S11316A03EBF490041EAD3715B0040EA010062F1A8
S11316B07F02FD2A1DD8B3F1004F40EBC25008BF92
S11316C020F00100704790F0000F0CF0004C08BFB0
S11316D049024CEA502040EA51207F3AC2BFD2F17D
S11316E0FF0340EAC250704740F400004FF000038B
S11316F0013A5DDC12F1190FDCBF00F000407047C5
S1131700C2F10002410021FA02F1C2F1200200FA02
S113171002FC5FEA310040F1000053EA4C0308BFC9
S113172020EADC70704792F0000F00F0004C02BF1A
S1131730400010F4000F013AF9D040EA0C0093F095
S1131740000F01F0004C02BF490011F4000F013BEF
S1131750F9D041EA0C018FE70CEAD15392EA0C0F5D
S113176018BF93EA0C0F0AD030F0004C18BF31F0C8
S1131770004CD8D180EA010000F00040704790F09E
S1131780000F17BF90F0004F084691F0000F91F042
S1131790004F14D092EA0C0F01D142020FD193EA08
S11317A00C0F03D14B0218BF084608D180EA010090
S11317B000F0004040F0FE4040F40000704740F06C
S11317C0FE4040F4400070474FF0FF0C1CEAD0523A
S11317D01EBF1CEAD15392EA0C0F93EA0C0F69D096
S11317E0A2EB030280EA010C49024FEA402037D001
S11317F04FF0805343EA111143EA10130CF00040F8
S11318008B4238BF5B0042F17D024FF4000C8B42E7
S113181024BF5B1A40EA0C00B3EB510F24BFA3EBC7
S1131820510340EA5C00B3EB910F24BFA3EB910397
S113183040EA9C00B3EBD10F24BFA3EBD10340EAF1
S1131840DC001B0118BF5FEA1C1CE0D1FD2A3FF637
S113185050AF8B4240EBC25008BF20F001007047EC
S11318600CF0004C4CEA50207F32C2BFD2F1FF038F
S113187040EAC250704740F400004FF00003013AC0
S113188037E792F0000F00F0004C02BF400010F464
S1131890000F013AF9D040EA0C0093F0000F01F078
S11318A0004C02BF490011F4000F013BF9D041EA9A
S11318B00C0195E70CEAD15392EA0C0F08D14202CD
S11318C07FF47DAF93EA0C0F7FF470AF084676E7A0
S11318D093EA0C0F04D14B023FF44CAF08466EE779
S11318E030F0004C18BF31F0004CCAD130F0004247
S11318F07FF45CAF31F000437FF43CAF5FE700BF9F
S11319004FF0FF3C06E000BF4FF0010C02E000BFC7
S11319104FF0010C4DF804CD4FEA40024FEA410369
S11319207FEA226C18BF7FEA236C11D001B052EA1F
S1131930530C18BF90EA010F58BFB2EB030088BFE5
S1131940C81738BF6FEAE17018BF40F00100704754
S11319507FEA226C02D15FEA402C05D17FEA236C36
S1131960E4D15FEA412CE1D05DF8040B704700BF7D
S1131970844608466146FFE70FB5FFF7C9FF002814
S113198048BF10F1000F0FBD4DF808EDFFF7F4FF4D
S11319900CBF012000205DF808FB00BF4DF808EDE6
S11319A0FFF7EAFF34BF012000205DF808FB00BF09
S11319B04DF808EDFFF7E0FF94BF012000205DF82B
S11319C008FB00BF4DF808EDFFF7D2FF94BF0120DC
S11319D000205DF808FB00BF4DF808EDFFF7C8FFD5
S11319E034BF012000205DF808FB00BF4FEA40022D
S11319F0B2F1FE4F0FD34FF09E03B3EB12620DD939
S1131A004FEA002343F0004310F0004F23FA02F0A2
S1131A1018BF404270474FF00000704712F1610F49
S1131A2001D1420205D110F0004008BF6FF0004020
S1131A3070474FF000007047002301461A461846CD
S1131A4000F034B908B5074B044613B1002100F087
S1131A5089F9054B1868836A03B19847204600F05A
S1131A6049FD00BF651D00007425000038B5074B13
S1131A70074CE41AA4101D4624B1013C55F8243047
S1131A809847F9E7BDE8384000F03CBD0402FF1F69
S1131A900802FF1F70B50E4B0E4CE41AA41000256B
S1131AA01E46A54204D056F8253098470135F8E77C
S1131AB000F022FD084C094BE41AA41000251E4630
S1131AC0A54204D056F8253098470135F8E770BD93
S1131AD00002FF1F0002FF1F0402FF1F0002FF1F7E
S1131AE0024B0146186800F059B800BFFC01FF1F03
S1131AF0024B0146186800F00BB800BFFC01FF1F41
S1131B0002440346934202D003F8011BFAE77047EC
S1131B1030B500293ED051F8042C0B1F1E49002A71
S1131B20B8BF9B180A680C4612B95A600B6030BDE6
S1131B309A420ED919685818824204BF1068526834
S1131B405A6004BF09181960236030BD994203D854
S1131B500A4651680029F9D1146815199D420AD121
S1131B601B682344D0188142136013D108680344CE
S1131B7013604B680DE002D90C23036030BD186874
S1131B801C18A14204BF0C684968596004BF0019BD
S1131B901860536030BD00BF3002FF1F70B5CD1C0C
S1131BA025F0030508350C2D38BF0C25002D0646FD
S1131BB003DA0C233360002070BDA942F9D81F4B0F
S1131BC01C681A462146A1B10B685B1B0ED40B2B73
S1131BD003D90B60CC18CD501EE08C420DBF636856
S1131BE04B686360136018BF0C4615E00C464968E7
S1131BF0E9E7134C23681BB9304600F023F8206052
S1131C002946304600F01EF8431CD2D0C41C24F0F0
S1131C100304A0420AD1256004F10B00231D20F027
S1131C200700C31A09D05A42E25070BD211A304647
S1131C3000F008F80130EED1BBE770BD3002FF1FA1
S1131C402C02FF1F38B5064C0023054608462360C6
S1131C5000F042FC431C02D1236803B12B6038BD61
S1131C609003FF1F0EB400B59CB04FF402711DAB7E
S1131C70ADF81410029006906FF000410A480491E8
S1131C8007914FF6FF7153F8042BADF81610006856
S1131C90019302A900F02AF9029B00221A701CB0D9
S1131CA05DF804EB03B07047FC01FF1F2DE9F84316
S1131CB0294D2C6806460F46914698460CB9274C88
S1131CC02C6063681F2B14DD254B1BB94FF0FF30CC
S1131CD0BDE8F8838C20FFF703FF04460028F5D005
S1131CE000232A68026043602860C0F888304EB33D
S1131CF006E03EB3D4F8880078B9194B002BE5D040
S1131D004FF48470FFF7ECFE0028DFD00023C0F806
S1131D100031C0F80431C4F88800626840F82290A9
S1131D200123934000EB8201D0F800211A43022ED4
S1131D30C0F80021C1F8808002BFD0F80421134309
S1131D40C0F8043163685A1C02336260002044F80E
S1131D502370BDE8F88300BFC002FF1F3402FF1FD9
S1131D60E11A00002DE9F74F89460190304B1C68B9
S1131D7098464FF0010B002C56D06568D4F8886063
S1131D806F1EAD0006EB050A04352544002F36DB33
S1131D90B9F1000F09D026B9013FAAF1040A043DA4
S1131DA0F4E7DAF87C209145F6D161682A680139B4
S1131DB08F4216BF002367602B60002AECD0636853
S1131DC000932EB1D6F800010BFA07F1014201D1BC
S1131DD090470BE0D6F80401014204D15AF8041CE0
S1131DE00198904702E05AF8040C90476268009BFF
S1131DF09342BBD1D8F800209442CDD0B6E70D4B26
S1131E0093B16268236862B95BB1C8F8003016B157
S1131E103046FFF76DFE2046FFF76AFED8F8004013
S1131E20A9E7A0461C46A6E703B0BDE8F08F00BFB3
S1131E30C002FF1FF11A00002DE9F0478E689E4290
S1131E4082460C46914698463ED88A8912F4906F91
S1131E503AD0256809696F1A6569022305EB4505BF
S1131E6095FBF3F57B1C43449D4238BF1D46530547
S1131E700FD52946FFF792FE064698B13A462169E6
S1131E8000F0D3FAA38923F4906343F08003A38181
S1131E9013E02A4600F0EFFA064670B9216950466D
S1131EA0FFF736FE0C23CAF80030A38943F0400341
S1131EB0A3814FF0FF30BDE8F087266165613E44A1
S1131EC0ED1B2660A5604646464528BF4646324679
S1131ED04946206800F0B4FAA3689B1BA3602368FA
S1131EE01E4426600020BDE8F08700002DE9F04F75
S1131EF09DB0804603938B891C060D4616460DD56E
S1131F000B695BB94021FFF749FE2860286118B9C5
S1131F100C23C8F80030CDE040236B610023099303
S1131F2020238DF82930DFF89CB130238DF82A3036
S1131F3037463C4614F8013B1BB9B7EB060910D0F1
S1131F4003E0252BF9D02746F3E74B4632462946D2
S1131F504046FFF771FF013000F0A780099B4B4416
S1131F6009933B78002B00F0A08000234FF0FF3250
S1131F7004930793059206938DF853301A93012620
S1131F80052221784E4800F041FA671C049B38B1C1
S1131F904B4A801A06FA00F0184304903C46EFE7D7
S1131FA0D90644BF20228DF853201A0744BF2B22A0
S1131FB08DF8532022782A2A03D0079A00210A2078
S1131FC00BE0039A111D12680391002A10DA5242A1
S1131FD043F00200079204900BE0274601343B785B
S1131FE0303B092B03D800FB02320121F5E701B194
S1131FF007923B782E2B1ED17B782A2B0AD1039B88
S11320001A1D1B680392002BB8BF4FF0FF33023731
S1132010059310E000230593781C19460A2407460B
S113202001303A78303A092A03D804FB012101230C
S1132030F5E703B1059103223978224800F0E6F967
S113204040B14023CBEB000003FA00F0049B18439B
S11320500490013739781C488DF8281006227E1C1C
S113206000F0D4F988B1194B33B9039B073323F03B
S113207007030833039314E003AB00932A46144B7D
S113208004A94046AFF3008007E003AB00932A465F
S11320900F4B04A9404600F093F8B0F1FF3F82468D
S11320A003D0099B5344099342E7AB895B0601D4EF
S11320B0099801E04FF0FF301DB0BDE8F08F00BF7C
S11320C0782500007E250000822500000000000025
S11320D0391E00002DE9F04791461F460A698B68B6
S11320E0DDF820809342B8BF1346C9F8003091F858
S11320F0432006460C4612B10133C9F80030236868
S1132100990642BFD9F800300233C9F80030256877
S113211015F0060510D104F1190A07E0012352460F
S113212039463046C04701301AD00135E368D9F842
S113213000209B1A9D42F1DB94F84330226800335F
S113214018BF012392060FD5E1185A1C302081F8DC
S11321504300224494F8451082F84310023303E00C
S11321604FF0FF30BDE8F08704F1430239463046B2
S1132170C0470130F4D02268D9F80050E36802F077
S11321800602042A08BF5D1B2269A3680CBF25EA66
S1132190E57500259342C4BF9B1AED184FF0000962
S11321A01A344D4509D00123224639463046C047EA
S11321B00130D5D009F10109F3E70020BDE8F0872B
S11321C02DE9F04317460A7E85B06E2A98460646E6
S11321D00C460C9B01F1430E00F0AE8011D8632A2B
S11321E022D009D8002A00F0BB80582A40F0CA80C7
S11321F081F84520834955E0642A1ED0692A1CD001
S1132200C0E0732A00F0B08009D86F2A2ED0702A5B
S113221040F0B8800A6842F020020A603EE0752A65
S113222024D0782A3AD0ADE01A6801F14205111D94
S11322301960136884F84230A8E021681A6811F024
S1132240800F02D0111D196008E011F0400F02F157
S11322500401196002D0B2F9003000E01368002BC9
S11322603CDA2D225B4284F8432037E021681A6867
S113227011F0800F02D0111D196007E011F0400F1A
S113228002F10401196001D0138800E01368227E72
S11322905C496F2A14BF0A2208221BE078225A499B
S11322A084F845202268186812F0800F00F10405B4
S11322B01D6003D1550601D5038800E00368D007EB
S11322C044BF42F0200222601BB9226822F020029F
S11322D022601022002084F8430001E049490A22C8
S11322E06568A560002D08DB206820F004002060EC
S11322F02BB9002D7DD175460CE0002B79D07546A5
S1132300B3FBF2F002FB1033CB5C05F8013D03464E
S11323100028F5D1082A0BD12368DA0708D52369E8
S113232062689A42DEBF302305F8013C05F1FF35AF
S1132330C5EB0E0323612EE008681A68496910F0A2
S1132340800F03D0101D1860136808E010F0400FD0
S113235002F104001860136801D0198000E01960CC
S113236000232361754616E01A68111D196015686B
S113237062680021284600F049F808B1401B6060FB
S1132380636804E004F1420584F8422001232361D8
S1132390002384F84330CDF800803B4603AA21464D
S11323A03046FFF797FE013002D14FF0FF3026E0B0
S11323B023692A4639463046C0470130F5D02368A0
S11323C09B0710D5002504F1190907E001234A46AB
S11323D039463046C0470130E7D00135E368039AF7
S11323E09B1A9D42F2DBE068039B9842B8BF1846F3
S11323F005E00B7884F8423004F142058AE705B021
S1132400BDE8F083892500009A25000010B5C9B203
S113241002449042034606D01C788C4200F101002D
S1132420F7D1184610BD002010BD10B5431E0A4454
S1132430914204D011F8014B03F8014FF8E710BDA5
S1132440884210B501EB020301D8421E0BE098420A
S1132450FBD28118D21AD34204D013F8014D01F8EB
S1132460014DF8E710BD994204D011F8014B02F870
S1132470014FF8E710BDF8B5074615460E4621B9D9
S11324801146BDE8F840FFF789BB1AB9FFF740FBD6
S11324902846F8BD00F015F885420ED9294638467D
S11324A0FFF77CFB044650B131462A46FFF7BDFFD7
S11324B031463846FFF72CFB01E03046F8BD204694
S11324C0F8BD51F8040C0028BEBF091851F8043CAB
S11324D0C018043870470000044A05491368002BEB
S11324E008BF0B461844106018467047C402FF1F0B
S11324F09803FF1FFEE700BFF8B500BFF8BC08BC97
S11325009E467047F8B500BFF8BC08BC9E467047AD
S11325104D65617375726564204E65726E737420C7
S11325204F757470757420566F6C746167653A20CA
S11325302566092050756D7043757272656E74203E
S113254044757479204379636C652025750920509E
S1132550756D702043757272656E74204D6561737C
S1132560757265643A2025660D0A0060634E4F4318
S1132570000000009C01FF1F232D302B2000686CFD
S11325804C00656667454647003031323334353692
S113259037383941424344454600303132333435CB
S11325A036373839616263646566000000000000F4
S10B25B0BCDEFF7F0100000006
S11325B8000E2707000000000000000000000000D3
S11325C800000000000000000000000000000000FF
S11325D8000000006F25000000000000000000005B
S11325E800000000000000000000000000000000DF
S11325F800000000000000000000000000000000CF
S113260800000000000000000000000000000000BE
S1132618000000009C01FF1F3904000011040000A1
S9030BB938
