S01500006275696C642F7769646562616E642E73313962
S113000000000320BD070000ED070000F107000019
S1130010F5070000F9070000FD07000000000000DC
S113002000000000000000000000000001080000C3
S11300300508000000000000090800000D08000089
S11300401108000011080000110800001108000048
S11300501108000011080000110800001108000038
S11300601108000011080000110800001108000028
S11300701108000011080000110800001108000018
S11300801108000011080000110800001108000008
S113009011080000110800001108000011080000F8
S11300A011080000110800001108000011080000E8
S11300B011080000110800001108000011080000D8
S11300C011080000110800001108000011080000C8
S11300D011080000110800001108000011080000B8
S11300E011080000110800009D060000110800001E
S11300F01108000011080000110800001108000098
S1130100990600007906000011080000110800009B
S11301101108000011080000110800001108000077
S11301201108000011080000110800001108000067
S11301301108000011080000110800001108000057
S11301401108000011080000110800001108000047
S11301501108000011080000110800001108000037
S1130160110800008D0700001108000011080000AC
S11301701108000011080000110800001108000017
S11301801108000011080000110800001108000007
S10B0190110800001108000031
S1130400FFFFFFFFFFFFFFFFFFFFFFFFFEFFFFFFF9
S1130410064B1A7810B51C4632B9054B13B1054882
S1130420AFF300800123237010BD00BF0802FF1F3B
S11304300000000014110000074B10B51BB1074960
S11304400748AFF300800748036823B1064B13B194
S1130450BDE81040184710BD000000000C02FF1F4B
S1130460141100000802FF1F00000000134B002BB2
S113047008BF114B9D46A3F5803A00218B460F46D9
S11304801148124A121A00F0ADFC0D4B002B00D09B
S113049098470C4B002B00D0984700200021040003
S11304A00D000B4800F03AFC00F066FC2000290027
S11304B000F008F900F038FC0000080000000320F8
S11304C000000000000000000802FF1F5003FF1F8F
S11304D0510D0000344B4CF22052DA814DF62812B3
S11304E0DA814FF4E9721A8003F52C3341F23801B2
S11304F09A78100742BF9A7842F008029A702B4B00
S11305005A5842F400725A5041F244024FF0927128
S1130510995041F204015A5842F480325A501A68F0
S113052042F440221A60224A936C23F0807323F42D
S1130530E06393641F4B20225A701F4A802111707C
S11305401A7B02F0FC021A73BA221A70DA7802F0EB
S11305501F02DA7013221A7118225A719A79D1067D
S1130560FCD49979134A01F00C010829F9D15823D4
S1130570537193790F4903F00C03082BF9D18A794D
S11305800C4B5206FBD52A221A709A7902F00C02FF
S11305900C2AFAD1054941F248028B5823F00F0383
S11305A043F009038B50704700200540007004405D
S11305B000900440004006400050064070B50446D8
S11305C008464FF089411E46154600F031FA00F006
S11305D07FFB00F0D9F94FF089412060304600F0EC
S11305E027FA00F075FB00F0CFF94FF08941A060C5
S11305F0284600F01DFA00F06BFB00F0C5F9049BDF
S1130600E360059B2361069B6361089BA361079BD1
S1130610E361099B2362002360606362A362E36277
S11306202363002070BD00000F4B41F23C021860B0
S11306300E48835843F4000383500D4B00221A6084
S11306400122C3F80011C3F80C210222C3F80821C7
S1130650D3F8082142F00102C3F80821054B4FF4F6
S113066080325A6062B67047C402FF1F00700440B3
S11306700070034000E100E008B572B6044B0122AB
S1130680C3F80C21034B1B68984762B608BD00BF32
S113069000700340C402FF1FFFF7EEBF064A136851
S11306A023F080031360054B1A68FE2A9EBF1A6864
S11306B001321A60704700BF008003402402FF1F0C
S11306C070470000F0B51F4B1F4F19681F4B204E99
S11306D0204D214887B0B94214BF0F461F461F4B17
S11306E002931F4B019300241E4B03940093224654
S11306F0059604951C4B4FF07C51FFF75FFF1B4B95
S113070002931B4B039422460194009305962346BF
S113071004954FF07C511748FFF750FF164B1748CC
S113072000241C60164B1C60164B1C60164B4FF4C7
S11307307A7197FBF1F11C60FFF776FF204607B052
S1130740F0BD00BF9801FF1F000E27070087930329
S11307506F12833A0000C8420803FF1F00002042C2
S11307600000F0420000A0420AD7233C3333534038
S11307706666E63ECC02FF1F0003FF1FC1060000B1
S11307803C03FF1F0403FF1F4003FF1F72B6084B07
S1130790084819684A1C1A60074A126992B220F87C
S11307A0112062B61A68012A04BF00221A60704739
S11307B04403FF1F4803FF1F00B00B400649074ACC
S11307C0074B9B1A03DD043BC858D050FBDC05489B
S11307D08047054800470000201100009801FF1FD2
S11307E00802FF1FD50400006D040000FEE700BFEF
S11307F0FEE700BFFEE700BFFEE700BFFEE700BF65
S1130800FEE700BFFEE700BFFEE700BFFEE700BF54
S1130810FEE700BF80F0004002E000BF81F000412D
S113082042001FBF5FEA410392EA030F7FEA226C92
S11308307FEA236C6AD04FEA1262D2EB1363C1BF22
S1130840D218414048404140B8BF5B42192B88BF91
S1130850704710F0004F40F4000020F07F4018BFB4
S1130860404211F0004F41F4000121F07F4118BFD4
S1130870494292EA030F3FD0A2F1010241FA03FC7C
S113088010EB0C00C3F1200301FA03F100F0004364
S113089002D5494260EB4000B0F5000F13D3B0F12C
S11308A0807F06D340084FEA310102F10102FE2A9B
S11308B051D2B1F1004F40EBC25008BF20F001000B
S11308C040EA03007047490040EB000010F4000FB9
S11308D0A2F10102EDD1B0FA80FCACF1080CB2EB4C
S11308E00C0200FA0CF0AABF00EBC25052421843AB
S11308F0BCBFD0401843704792F0000F81F4000150
S113090006BF80F400000132013BB5E74FEA410322
S11309107FEA226C18BF7FEA236C21D092EA030F8E
S113092004D092F0000F08BF0846704790EA010F08
S11309301CBF0020704712F07F4F04D1400028BF35
S113094040F00040704712F100723CBF00F5000017
S1130950704700F0004343F0FE4040F4000070474D
S11309607FEA226216BF08467FEA236301464202F9
S113097006BF5FEA412390EA010F40F4800070470C
S11309804FF0000304E000BF10F0004348BF4042B2
S11309905FEA000C08BF704743F0964301464FF0EE
S11309A000001CE050EA010208BF70474FF000034A
S11309B00AE000BF50EA010208BF704711F000438B
S11309C002D5404261EB41015FEA010C02BF84465B
S11309D00146002043F0B64308BFA3F18053A3F5BA
S11309E00003BCFA8CF2083AA3EBC25310DB01FA01
S11309F002FC634400FA02FCC2F12002BCF1004F85
S1130A0020FA02F243EB020008BF20F00100704715
S1130A1002F1200201FA02FCC2F1200250EA4C0069
S1130A2021FA02F243EB020008BF20EADC707047AF
S1130A304FF0FF0C1CEAD0521EBF1CEAD15392EABD
S1130A400C0F93EA0C0F6FD01A4480EA010C400299
S1130A5018BF5FEA41211ED04FF0006343EA5010F3
S1130A6043EA5111A0FB01310CF00040B1F5000F35
S1130A703EBF490041EAD3715B0040EA010062F1E4
S1130A807F02FD2A1DD8B3F1004F40EBC25008BFCE
S1130A9020F00100704790F0000F0CF0004C08BFEC
S1130AA049024CEA502040EA51207F3AC2BFD2F1B9
S1130AB0FF0340EAC250704740F400004FF00003C7
S1130AC0013A5DDC12F1190FDCBF00F00040704701
S1130AD0C2F10002410021FA02F1C2F1200200FA3F
S1130AE002FC5FEA310040F1000053EA4C0308BF06
S1130AF020EADC70704792F0000F00F0004C02BF57
S1130B00400010F4000F013AF9D040EA0C0093F0D1
S1130B10000F01F0004C02BF490011F4000F013B2B
S1130B20F9D041EA0C018FE70CEAD15392EA0C0F99
S1130B3018BF93EA0C0F0AD030F0004C18BF31F004
S1130B40004CD8D180EA010000F00040704790F0DA
S1130B50000F17BF90F0004F084691F0000F91F07E
S1130B60004F14D092EA0C0F01D142020FD193EA44
S1130B700C0F03D14B0218BF084608D180EA0100CC
S1130B8000F0004040F0FE4040F40000704740F0A8
S1130B90FE4040F4400070474FF0FF0C1CEAD05276
S1130BA01EBF1CEAD15392EA0C0F93EA0C0F69D0D2
S1130BB0A2EB030280EA010C49024FEA402037D03D
S1130BC04FF0805343EA111143EA10130CF0004034
S1130BD08B4238BF5B0042F17D024FF4000C8B4224
S1130BE024BF5B1A40EA0C00B3EB510F24BFA3EB04
S1130BF0510340EA5C00B3EB910F24BFA3EB9103D4
S1130C0040EA9C00B3EBD10F24BFA3EBD10340EA2D
S1130C10DC001B0118BF5FEA1C1CE0D1FD2A3FF673
S1130C2050AF8B4240EBC25008BF20F00100704728
S1130C300CF0004C4CEA50207F32C2BFD2F1FF03CB
S1130C4040EAC250704740F400004FF00003013AFC
S1130C5037E792F0000F00F0004C02BF400010F4A0
S1130C60000F013AF9D040EA0C0093F0000F01F0B4
S1130C70004C02BF490011F4000F013BF9D041EAD6
S1130C800C0195E70CEAD15392EA0C0F08D1420209
S1130C907FF47DAF93EA0C0F7FF470AF084676E7DC
S1130CA093EA0C0F04D14B023FF44CAF08466EE7B5
S1130CB030F0004C18BF31F0004CCAD130F0004283
S1130CC07FF45CAF31F000437FF43CAF5FE700BFDB
S1130CD04FEA4002B2F1FE4F0FD34FF09E03B3EB45
S1130CE012620DD94FEA002343F0004310F0004F85
S1130CF023FA02F018BF404270474FF000007047DB
S1130D0012F1610F01D1420205D110F0004008BF79
S1130D106FF0004070474FF0000070470023014619
S1130D201A46184600F010B908B5074B044613B12B
S1130D30002100F065F9054B1868836A03B19847F0
S1130D40204600F0D5F900BF01100000101100008A
S1130D5038B5074B074CE41AA4101D4624B1013CD6
S1130D6055F824309847F9E7BDE8384000F0C8B991
S1130D700402FF1F0802FF1F70B50E4B0E4CE41A4D
S1130D80A41000251E46A54204D056F825309847E5
S1130D900135F8E700F0AEF9084C094BE41AA41049
S1130DA000251E46A54204D056F825309847013543
S1130DB0F8E770BD0002FF1F0002FF1F0402FF1FBF
S1130DC00002FF1F024B0146186800F059B800BF2B
S1130DD0FC01FF1F024B0146186800F00BB800BF6E
S1130DE0FC01FF1F02440346934202D003F8011B97
S1130DF0FAE7704730B500293ED051F8042C0B1F98
S1130E001E49002AB8BF9B180A680C4612B95A60DA
S1130E100B6030BD9A420ED919685818824204BF3B
S1130E20106852685A6004BF09181960236030BD05
S1130E30994203D80A4651680029F9D11468151952
S1130E409D420AD11B682344D0188142136013D1F8
S1130E500868034413604B680DE002D90C23036057
S1130E6030BD18681C18A14204BF0C684968596059
S1130E7004BF00191860536030BD00BF2C02FF1F6F
S1130E8070B5CD1C25F0030508350C2D38BF0C2595
S1130E90002D064603DA0C233360002070BDA942FE
S1130EA0F9D81F4B1C681A462146A1B10B685B1B7D
S1130EB00ED40B2B03D90B60CC18CD501EE08C4202
S1130EC00DBF63684B686360136018BF0C4615E080
S1130ED00C464968E9E7134C23681BB9304600F017
S1130EE023F820602946304600F01EF8431CD2D077
S1130EF0C41C24F00304A0420AD1256004F10B00B1
S1130F00231D20F00700C31A09D05A42E25070BDD5
S1130F10211A304600F008F80130EED1BBE770BD6D
S1130F202C02FF1F2802FF1F38B5064C002305467C
S1130F300846236000F0CEF8431C02D1236803B1B5
S1130F402B6038BD4C03FF1F2DE9F843294D2C6855
S1130F5006460F46914698460CB9274C2C606368A8
S1130F601F2B14DD254B1BB94FF0FF30BDE8F88370
S1130F708C20FFF727FF04460028F5D000232A68B9
S1130F80026043602860C0F888304EB306E03EB388
S1130F90D4F8880078B9194B002BE5D04FF484704D
S1130FA0FFF710FF0028DFD00023C0F80031C0F89D
S1130FB00431C4F88800626840F822900123934009
S1130FC000EB8201D0F800211A43022EC0F8002160
S1130FD0C1F8808002BFD0F804211343C0F8043163
S1130FE063685A1C02336260002044F82370BDE831
S1130FF0F88300BFBC02FF1F3002FF1FC50D0000B5
S11310002DE9F74F89460190304B1C6898464FF004
S1131010010B002C56D06568D4F888606F1EAD00B3
S113102006EB050A04352544002F36DBB9F1000F21
S113103009D026B9013FAAF1040A043DF4E7DAF81D
S11310407C209145F6D161682A6801398F4216BF28
S1131050002367602B60002AECD0636800932EB1F4
S1131060D6F800010BFA07F1014201D190470BE0D9
S1131070D6F80401014204D15AF8041C019890479F
S113108002E05AF8040C90476268009B9342BBD17B
S1131090D8F800209442CDD0B6E70D4B93B16268E6
S11310A0236862B95BB1C8F8003016B13046FFF767
S11310B091FE2046FFF78EFED8F80040A9E7A0462F
S11310C01C46A6E703B0BDE8F08F00BFBC02FF1FBB
S11310D0D50D0000044A05491368002B08BF0B46D0
S11310E01844106018467047C002FF1F5003FF1FCA
S11310F0FEE700BFF8B500BFF8BC08BC9E467047C9
S1131100F8B500BFF8BC08BC9E4670474300000019
S10B11109C01FF1F0000000018
S10B111854F3FF7F0100000005
S1131120000E27070000000000000000000000007F
S113113000000000000000000000000000000000AB
S1131140000000000C11000000000000000000007E
S1131150000000000000000000000000000000008B
S1131160000000000000000000000000000000007B
S1131170000000000000000000000000000000006B
S1131180000000009C01FF1F39040000110400004E
S90307BD38
