S01500006275696C642F7769646562616E642E73313962
S113000000000320890D0000B90D0000BD0D0000A3
S1130010C10D0000C50D0000C90D00000000000066
S1130020000000000000000000000000CD0D0000F2
S1130030D10D000000000000D50D0000D90D000016
S1130040DD0D0000DD0D0000DD0D0000DD0D000004
S1130050DD0D0000DD0D0000DD0D0000DD0D0000F4
S1130060DD0D0000DD0D0000DD0D0000DD0D0000E4
S1130070DD0D0000DD0D0000DD0D0000DD0D0000D4
S1130080DD0D0000DD0D0000DD0D0000DD0D0000C4
S1130090DD0D0000DD0D0000DD0D0000DD0D0000B4
S11300A0DD0D0000DD0D0000DD0D0000DD0D0000A4
S11300B0DD0D0000DD0D0000DD0D0000DD0D000094
S11300C0DD0D0000DD0D0000DD0D0000DD0D000084
S11300D0DD0D0000DD0D0000DD0D0000DD0D000074
S11300E0DD0D0000DD0D000005090000DD0D000040
S11300F0DD0D0000DD0D0000DD0D0000DD0D000054
S11301004D0700006D070000DD0D0000DD0D00004F
S1130110DD0D0000DD0D0000DD0D0000DD0D000033
S1130120DD0D0000DD0D0000DD0D0000DD0D000023
S1130130DD0D0000DD0D0000DD0D0000DD0D000013
S1130140DD0D0000DD0D0000DD0D0000DD0D000003
S1130150DD0D0000DD0D0000DD0D0000DD0D0000F3
S1130160DD0D0000310D0000DD0D0000DD0D00008F
S1130170DD0D0000DD0D0000DD0D0000DD0D0000D3
S1130180DD0D0000DD0D0000DD0D0000DD0D0000C3
S10B0190DD0D0000DD0D00008F
S1130400FFFFFFFFFFFFFFFFFFFFFFFFFEFFFFFFF9
S113041010B5054C227832B9044B13B10448AFF33C
S113042000800123237010BD0802FF1F000000009C
S1130430AC290000074B10B51BB107490748AFF3BF
S113044000800748036823B1064B13B1BDE8104090
S1130450184710BD000000000C02FF1FAC2900006B
S11304600802FF1F00000000134B002B08BF114BB4
S11304709D46A3F5803A00218B460F461148124A47
S1130480121A01F0ADFC0D4B002B00D098470C4B19
S1130490002B00D098470020002104000D000B48D9
S11304A001F03CFC01F068FC2000290000F0DEFAB9
S11304B001F03AFC000008000000032000000000E6
S11304C0000000000802FF1F7803FF1F511D0000F9
S11304D0344B4CF22052DA814DF62812DA814FF473
S11304E0E9721A8003F52C3341F238019A78100727
S11304F042BF9A7842F008029A702B4B5A5842F441
S113050000725A5041F244024FF09271995041F2F4
S113051004015A5842F480325A501A6842F4402274
S11305201A60224A936C23F0807323F4E06393648B
S11305301F4B20225A701F4A802111701A7B02F02F
S1130540FC021A73BA221A70DA7802F01F02DA7007
S113055013221A7118225A719A79D106FCD4997906
S1130560134A01F00C010829F9D1582353719379E6
S11305700F4903F00C03082BF9D18A790C4B52066E
S1130580FBD52A221A709A7902F00C020C2AFAD1AD
S1130590054941F248028B5823F00F0343F0090345
S11305A08B507047002005400070044000900440C8
S11305B000400640005006402DE9F041089E0160CD
S11305C004464260314683600698079F01F0D6F8DE
S11305D031460546384601F0D1F84FF07E51804649
S11305E001F092FB414618B1284601F085FA02E079
S11305F0284601F0CDF93946054601F085FB30B9AE
S11306003146284601F062FB10B1354600E03D4614
S11306100A9BE56027616661A361099BE3610B9B0B
S11306202362002363620020BDE8F0812DE9F843D2
S1130630044600690D4601F049FB08B1256905E04F
S11306406169284601F042FB00B165696169284689
S113065001F094F80546206961692069616901F037
S11306608DF80146284601F047FA0146E06801F09A
S113067085F8D4F82490276A60622168054601F061
S113068087F9D4F8048006464946284601F076F8EE
S1130690414601F07DF9314601F072F8A66805463D
S11306A00021384601F074F9314601F071F9294608
S11306B001F066F84FF07E5101F062F84FF07C5182
S11306C001F066F90546A069E16901F057F8294689
S11306D001F05EF9E16901F053F8A169054601F002
S11306E013FB08B1A56905E0E169284601F0EEFABB
S11306F000B1E5692846BDE8F88300000F4B41F2DC
S11307003C0218600E48835843F4000383500D4B99
S113071000221A600122C3F80011C3F80C2102223E
S1130720C3F80821D3F8082142F00102C3F80821D4
S1130730054B4FF480325A6062B67047CC02FF1FFB
S1130740007004400070034000E100E008B572B698
S1130750044B0122C3F80C21034B1B68984762B673
S113076008BD00BF00700340CC02FF1F08B572B67D
S1130770044B0122C3F81C21034B5B68984762B603
S113078008BD00BF00700340CC02FF1F1A4B984203
S113079030B530D1A3F50C3341F23401174D5A581A
S11307A042F480625A5041F238014FF416345A58D8
S11307B042F480625A5003F540534FF440721A6475
S11307C05A640F4B032218602B68B3FBF4F1CBB2CD
S11307D04370027002700270027002700270027044
S11307E043702B685B01B3FBF4F3A3EB4113DBB25F
S11307F083720C23C37030BD00A006409801FF1F14
S1130800D402FF1FC37803F07F03C37003791B0670
S1130810FCD5C171704710B50A460978044601B980
S113082010BD2046FFF7EEFF12F8011FF7E70000A6
S1130830064B1A68064BB3FBF2F358436423B0FB30
S1130840F3F0044B80B21862704700BF2802FF1F08
S1130850008793030080034070B5254B41F23C01AF
S11308605A5842F080725A5041F23802995841F471
S11308706061995003F580431E494FF48862DA6041
S11308804B6D43F004034B6500234B60CB641A4962
S1130890B1FBF0F1B1F5803F0FD301224FF6FE75A5
S11308A002FA03F4B1FBF4F6AE4204D90133082B87
S11308B0F6D1012070BD002BFBD0104A1049106006
S11308C003F007030C4AB2FBF4F2B2FBF0F0094A5E
S11308D0086043F0480313600B689360D36943F0E6
S11308E02803D361D36923F00403D36170BD00BF2F
S11308F00070044000800340008793032802FF1F18
S11309002C02FF1F064A136823F080031360054B73
S11309101A68FE2A9EBF1A6801321A60704700BF27
S1130920008003402402FF1F38B5454B1C885888BB
S113093000B200F0D9FF00F0B7FB3DA3D3E90023D8
S113094000F006FC00224FF07C5300F001FC00F0A4
S1130950C1FE054600F0A8FB35A3D3E9002300F04F
S113096087FE24B2374B002854D11D6019683648DD
S1130970FFF75CFE354B00211860054601F0A6F92F
S1130980334B9A68002848D042F480029A605A682F
S113099042F400125A60204600F0A6FF00F084FBE7
S11309A023A3D3E9002300F0D3FB00224FF07C53B0
S11309B000F0CEFB00F08EFE044600F075FB1CA395
S11309C0D3E9002300F054FE224B00282CD11C60F4
S11309D0284600F069FB18A3D3E9002300F0B8FB14
S11309E000F050FE32301C4B6928CABF69221860DF
S11309F01A601A68002ADCBF01221A601868FFF71F
S1130A0017FF164B00221A601B68154AD25C154B5F
S1130A101A6038BD144A1A60A8E742F400129A60BA
S1130A205A6842F48002B5E70F4A1A60D0E700BF63
S1130A306666666666660A40000000000088B34089
S1130A406C03FF1FD802FF1F3C03FF1F0803FF1F97
S1130A5040F00F403803FF1F3403FF1F6803FF1FDC
S1130A606A29000000B00B40333353402DE9F04FA6
S1130A70DFF818926B4C6C4DDFF814B241F2380871
S1130A80ADF2044D4FF47A70FFF7E6FE59F80830E2
S1130A9043F4105349F80830636943F4C0036361B5
S1130AA06B6943F080636B61604B4FF480779F65A3
S1130AB05F6503F5405300269F66636943F4C003F2
S1130AC063616B6943F080636B61AB6843F080637F
S1130AD0AB60A36843F40013A36000F0DFF8544B49
S1130AE0544AD3F800A0544B0396924508BF9A4643
S1130AF0524B0593524B0493524B0293524B019326
S1130B00524B009332465B464FF07C515048FFF7FE
S1130B1053FD4A4B05934F4B03934F4B01934F4B5C
S1130B20CDF810B03246029600934FF0824133461E
S1130B304B48FFF741FD414B0593414B0493454B13
S1130B40039632460293CDF804B0334600964FF034
S1130B507E514448DFF83CB1FFF72EFD424ACBF802
S1130B60006000231360414E414A424813604FF431
S1130B707A719AFBF1F13360FFF7C0FD59F8083040
S1130B803D48DFF814A143F4105349F80830636971
S1130B9043F4C00363616B6943F080636B61234B6F
S1130BA09F655F6503F540534FF416519F66636973
S1130BB0324F43F4C00363616B6943F080636B613C
S1130BC0FFF7E4FD636843F400136360636843F470
S1130BD0800363606B6843F080636B60284DDAF8D0
S1130BE00000284C00F060FA80463868894600F01E
S1130BF05BFACDE90401DBF8000000F055FACDE919
S1130C0002013368009342464B46294606A801F088
S1130C1095F920681C49FFF7FEFD06A92068FFF737
S1130C20FAFDDCE740F00F4000F10F4000A0044063
S1130C309801FF1F000E2707008793036F12833A62
S1130C400000C842000020420000F0420000A04220
S1130C500C03FF1F0AD723BC333353406666E63EBA
S1130C603C03FF1FDC02FF1F0403FF1F3403FF1FAD
S1130C706403FF1F2909000000A006400803FF1FAA
S1130C8080280000D402FF1FDD280000007004400B
S1130C900AD7233C3803FF1FD802FF1F10B541F2C7
S1130CA030021E491E488B5843F000638B500023CA
S1130CB003601C4B6C229A6080225A621A46546A62
S1130CC0184B14F08004FAD1D96C9A6C0A44596C0C
S1130CD00A44196C0A44D96B0A44996B0A445208B1
S1130CE042F40042DA62D96E9A6E0A44596E0A449A
S1130CF0196E0A44D96D0A44996D0A44520842F4A3
S1130D0000421A630460026807498A5C1A60074B50
S1130D104FF400729A6062B610BD00BF00700440C8
S1130D206803FF1F00B00B406A29000000E100E0E7
S1130D3030B572B6104B11481A68042A1A4602DC00
S1130D401968002905DA002313601368C25C0C4B90
S1130D5010E01C680A490B4D621C1A600A6992B2C1
S1130D6025F814201A68825C0A6062B61A68042A9C
S1130D7001D100221A6030BD6803FF1F6A290000F8
S1130D8000B00B406C03FF1F0649074A074B9B1A30
S1130D9003DD043BC858D050FBDC054880470548B8
S1130DA000470000B82900009801FF1F0802FF1F38
S1130DB0D104000069040000FEE700BFFEE700BFA5
S1130DC0FEE700BFFEE700BFFEE700BFFEE700BF8F
S1130DD0FEE700BFFEE700BFFEE700BFFEE700BF7F
S1130DE081F0004102E000BF83F0004330B54FEAD8
S1130DF041044FEA430594EA050F08BF90EA020F45
S1130E001FBF54EA000C55EA020C7FEA645C7FEAD7
S1130E10655C00F0E2804FEA5454D4EB5555B8BFFA
S1130E206D420CDD2C4480EA020281EA030382EA6B
S1130E30000083EA010180EA020281EA0303362DFD
S1130E4088BF30BD11F0004F4FEA01314FF4801CD0
S1130E504CEA113102D0404261EB410113F0004FE2
S1130E604FEA03334CEA133302D0524263EB430399
S1130E7094EA050F00F0A780A4F10104D5F1200E37
S1130E800DDB02FA0EFC22FA05F2801841F1000192
S1130E9003FA0EF2801843FA05F359410EE0A5F166
S1130EA020050EF1200E012A03FA0EFC28BF4CF097
S1130EB0020C43FA05F3C01851EBE37101F000454D
S1130EC007D54FF0000EDCF1000C7EEB00006EEB5A
S1130ED00101B1F5801F1BD3B1F5001F0CD34908E4
S1130EE05FEA30004FEA3C0C04F101044FEA44523B
S1130EF012F5800F80F09A80BCF1004F08BF5FEAC2
S1130F00500C50F1000041EB045141EA050130BDA1
S1130F105FEA4C0C404141EB010111F4801FA4F144
S1130F200104E9D191F0000F04BF01460020B1FA99
S1130F3081F308BF2033A3F10B03B3F120020CDAD1
S1130F400C3208DD02F1140CC2F10C0201FA0CF0AF
S1130F5021FA02F10CE002F11402D8BFC2F1200C14
S1130F6001FA02F120FA0CFCDCBF41EA0C019040CA
S1130F70E41AA2BF01EB0451294330BD6FEA040413
S1130F801F3C1CDA0C340EDC04F11404C4F12002FE
S1130F9020FA04F001FA02F340EA030021FA04F310
S1130FA045EA030130BDC4F10C04C4F1200220FA67
S1130FB002F001FA04F340EA0300294630BD21FAA5
S1130FC004F0294630BD94F0000F83F4801306BF6B
S1130FD081F480110134013D4EE77FEA645C18BF5F
S1130FE07FEA655C29D094EA050F08BF90EA020FF6
S1130FF005D054EA000C04BF1946104630BD91EAEE
S1131000030F1EBF0021002030BD5FEA545C05D1F0
S11310104000494128BF41F0004130BD14F580042F
S11310203CBF01F5801130BD01F0004545F0FE41A3
S113103041F470014FF0000030BD7FEA645C1ABFD8
S1131040194610467FEA655C1CBF0B46024650EA0F
S1131050013406BF52EA033591EA030F41F400213B
S113106030BD00BF90F0000F04BF0021704730B5C1
S11310704FF4806404F132044FF000054FF0000196
S113108050E700BF90F0000F04BF0021704730B557
S11310904FF4806404F1320410F0004548BF40422C
S11310A04FF000013EE700BF42004FEAE2014FEA81
S11310B031014FEA02701FBF12F07F4393F07F4F5C
S11310C081F06051704792F0000F14BF93F07F4F8E
S11310D0704730B54FF4607401F0004521F00041D1
S11310E020E700BF50EA010208BF704730B54FF057
S11310F000050AE050EA010208BF704730B511F05C
S1131100004502D5404261EB41014FF4806404F193
S113111032045FEA915C3FF4DCAE4FF003025FEA15
S1131120DC0C18BF03325FEADC0C18BF033202EB9D
S1131130DC02C2F1200300FA03FC20FA02F001FAF7
S113114003FE40EA0E0021FA02F11444C1E600BF96
S113115070B54FF0FF0C4CF4E06C1CEA11541DBF49
S11311601CEA135594EA0C0F95EA0C0F00F0DEF814
S11311702C4481EA030621EA4C5123EA4C5350EAF9
S1131180013518BF52EA033541F4801143F480134A
S113119038D0A0FB02CE4FF00005E1FB02E506F0DB
S11311A00042E0FB03E54FF00006E1FB03569CF030
S11311B0000F18BF4EF0010EA4F1FF04B6F5007F36
S11311C064F5407404D25FEA4E0E6D4146EB0606A8
S11311D042EAC62141EA55514FEAC52040EA5E5031
S11311E04FEACE2EB4F1FD0C88BFBCF5E06F1ED8DB
S11311F0BEF1004F08BF5FEA500E50F1000041EB12
S1131200045170BD06F0004646EA010140EA0200BE
S113121081EA0301B4EB5C04C2BFD4EB0C0541EAE0
S1131220045170BD41F480114FF0000E013C00F3F5
S1131230AB8014F1360FDEBF002001F0004170BD19
S1131240C4F10004203C35DA0C341BDC04F1140432
S1131250C4F1200500FA05F320FA04F001FA05F2BE
S113126040EA020001F0004221F0004110EBD3708B
S113127021FA04F642EB06015EEA430E08BF20EAB7
S1131280D37070BDC4F10C04C4F1200500FA04F35A
S113129020FA05F001FA04F240EA020001F00041EC
S11312A010EBD37041F100015EEA430E08BF20EA5F
S11312B0D37070BDC4F1200500FA05F24EEA020EA7
S11312C020FA04F301FA05F243EA020321FA04F0D6
S11312D001F0004121FA04F220EA020000EBD3708D
S11312E05EEA430E08BF20EAD37070BD94F0000F8D
S11312F00FD101F00046400041EB010111F4801FC1
S113130008BF013CF7D041EA060195F0000F18BF71
S1131310704703F00046520043EB030313F4801FAD
S113132008BF013DF7D043EA0603704794EA0C0F67
S11313300CEA135518BF95EA0C0F0CD050EA41067D
S113134018BF52EA4306D1D181EA030101F00041FA
S11313504FF0000070BD50EA410606BF1046194622
S113136052EA430619D094EA0C0F02D150EA01362E
S113137013D195EA0C0F05D152EA03361CBF10466F
S113138019460AD181EA030101F0004141F0FE410E
S113139041F470014FF0000070BD41F0FE4141F492
S11313A0780170BD70B54FF0FF0C4CF4E06C1CEA92
S11313B011541DBF1CEA135594EA0C0F95EA0C0F47
S11313C000F0A7F8A4EB050481EA030E52EA033502
S11313D04FEA013100F088804FEA03334FF0805523
S11313E045EA131343EA12634FEA022245EA111550
S11313F045EA10654FEA00260EF000419D4208BF01
S1131400964244F1FD0404F5407402D25B084FEAAD
S11314103202B61A65EB03055B084FEA32024FF459
S113142080104FF4002CB6EB020E75EB030E22BFB6
S1131430B61A754640EA0C005B084FEA3202B6EB76
S1131440020E75EB030E22BFB61A754640EA5C0025
S11314505B084FEA3202B6EB020E75EB030E22BFB5
S1131460B61A754640EA9C005B084FEA3202B6EBB6
S1131470020E75EB030E22BFB61A754640EADC0075
S113148055EA060E18D04FEA051545EA16754FEAD7
S113149006164FEAC30343EA52734FEAC2025FEAF5
S11314A01C1CC0D111F4801F0BD141EA00014FF084
S11314B000004FF0004CB6E711F4801F04BF014355
S11314C00020B4F1FD0C88BFBCF5E06F3FF6AFAE71
S11314D0B5EB030C04BFB6EB020C5FEA500C50F101
S11314E0000041EB045170BD0EF0004E4EEA113184
S11314F014EB5C04C2BFD4EB0C0541EA045170BD8B
S113150041F480114FF0000E013C90E645EA060ECE
S11315108DE60CEA135594EA0C0F08BF95EA0C0FFC
S11315203FF43BAF94EA0C0F0AD150EA01347FF444
S113153034AF95EA0C0F7FF425AF104619462CE71B
S113154095EA0C0F06D152EA03353FF4FDAE10467E
S1131550194622E750EA410618BF52EA43067FF4CF
S1131560C5AE50EA41047FF40DAF52EA43057FF45F
S1131570EBAE12E74FF0FF3C06E000BF4FF0010C6A
S113158002E000BF4FF0010C4DF804CD4FEA410CCE
S11315907FEA6C5C4FEA430C18BF7FEA6C5C1BD09B
S11315A001B050EA410C0CBF52EA430C91EA030F1C
S11315B002BF90EA020F0020704710F1000F91EA79
S11315C0030F58BF994208BF90422CBFD8176FEA47
S11315D0E37040F0010070474FEA410C7FEA6C5C15
S11315E002D150EA013C07D14FEA430C7FEA6C5C1C
S11315F0D6D152EA033CD3D05DF8040B704700BF48
S11316008446104662468C461946634600E000BF95
S113161001B5FFF7B7FF002848BF10F1000F01BD67
S11316204DF808EDFFF7F4FF0CBF012000205DF832
S113163008FB00BF4DF808EDFFF7EAFF34BF0120B7
S113164000205DF808FB00BF4DF808EDFFF7E0FF50
S113165094BF012000205DF808FB00BF4DF808EDA1
S1131660FFF7CEFF94BF012000205DF808FB00BF08
S11316704DF808EDFFF7C4FF34BF012000205DF8EA
S113168008FB00BF4FEA410212F5001215D211D532
S11316906FF47873B3EB625212D94FEAC12343F06B
S11316A0004343EA505311F0004F23FA02F018BFED
S11316B0404270474FF00000704750EA013005D1B6
S11316C011F0004008BF6FF0004070474FF0000079
S11316D0704700BF4FEA4102B2F1E04324BFB3F5C3
S11316E0001CDCF1FE5C0DD901F0004C4FEAC00295
S11316F04CEA5070B2F1004F40EB830008BF20F079
S11317000100704711F0804F21D113F13872BCBF32
S113171001F00040704741F480114FEA5252C2F187
S11317201802C2F1200C10FA0CF320FA02F018BFD0
S113173040F001004FEAC1234FEAD32303FA0CFC23
S113174040EA0C0023FA02F34FEA4303CCE77FEAB2
S1131750625307D150EA01331EBF4FF0FE4040F4FC
S11317604000704701F0004040F0FE4040F40000AB
S1131770704700BF80F0004002E000BF81F00041EC
S113178042001FBF5FEA410392EA030F7FEA226C23
S11317907FEA236C6AD04FEA1262D2EB1363C1BFB3
S11317A0D218414048404140B8BF5B42192B88BF22
S11317B0704710F0004F40F4000020F07F4018BF45
S11317C0404211F0004F41F4000121F07F4118BF65
S11317D0494292EA030F3FD0A2F1010241FA03FC0D
S11317E010EB0C00C3F1200301FA03F100F00043F5
S11317F002D5494260EB4000B0F5000F13D3B0F1BD
S1131800807F06D340084FEA310102F10102FE2A2B
S113181051D2B1F1004F40EBC25008BF20F001009B
S113182040EA03007047490040EB000010F4000F49
S1131830A2F10102EDD1B0FA80FCACF1080CB2EBDC
S11318400C0200FA0CF0AABF00EBC250524218433B
S1131850BCBFD0401843704792F0000F81F40001E0
S113186006BF80F400000132013BB5E74FEA4103B3
S11318707FEA226C18BF7FEA236C21D092EA030F1F
S113188004D092F0000F08BF0846704790EA010F99
S11318901CBF0020704712F07F4F04D1400028BFC6
S11318A040F00040704712F100723CBF00F50000A8
S11318B0704700F0004343F0FE4040F400007047DE
S11318C07FEA226216BF08467FEA2363014642028A
S11318D006BF5FEA412390EA010F40F4800070479D
S11318E04FF0000304E000BF10F0004348BF404243
S11318F05FEA000C08BF704743F0964301464FF07F
S113190000001CE050EA010208BF70474FF00003DA
S11319100AE000BF50EA010208BF704711F000431B
S113192002D5404261EB41015FEA010C02BF8446EB
S11319300146002043F0B64308BFA3F18053A3F54A
S11319400003BCFA8CF2083AA3EBC25310DB01FA91
S113195002FC634400FA02FCC2F12002BCF1004F15
S113196020FA02F243EB020008BF20F001007047A6
S113197002F1200201FA02FCC2F1200250EA4C00FA
S113198021FA02F243EB020008BF20EADC70704740
S11319904FF0FF0C1CEAD0521EBF1CEAD15392EA4E
S11319A00C0F93EA0C0F6FD01A4480EA010C40022A
S11319B018BF5FEA41211ED04FF0006343EA501084
S11319C043EA5111A0FB01310CF00040B1F5000FC6
S11319D03EBF490041EAD3715B0040EA010062F175
S11319E07F02FD2A1DD8B3F1004F40EBC25008BF5F
S11319F020F00100704790F0000F0CF0004C08BF7D
S1131A0049024CEA502040EA51207F3AC2BFD2F149
S1131A10FF0340EAC250704740F400004FF0000357
S1131A20013A5DDC12F1190FDCBF00F00040704791
S1131A30C2F10002410021FA02F1C2F1200200FACF
S1131A4002FC5FEA310040F1000053EA4C0308BF96
S1131A5020EADC70704792F0000F00F0004C02BFE7
S1131A60400010F4000F013AF9D040EA0C0093F062
S1131A70000F01F0004C02BF490011F4000F013BBC
S1131A80F9D041EA0C018FE70CEAD15392EA0C0F2A
S1131A9018BF93EA0C0F0AD030F0004C18BF31F095
S1131AA0004CD8D180EA010000F00040704790F06B
S1131AB0000F17BF90F0004F084691F0000F91F00F
S1131AC0004F14D092EA0C0F01D142020FD193EAD5
S1131AD00C0F03D14B0218BF084608D180EA01005D
S1131AE000F0004040F0FE4040F40000704740F039
S1131AF0FE4040F4400070474FF0FF0C1CEAD05207
S1131B001EBF1CEAD15392EA0C0F93EA0C0F69D062
S1131B10A2EB030280EA010C49024FEA402037D0CD
S1131B204FF0805343EA111143EA10130CF00040C4
S1131B308B4238BF5B0042F17D024FF4000C8B42B4
S1131B4024BF5B1A40EA0C00B3EB510F24BFA3EB94
S1131B50510340EA5C00B3EB910F24BFA3EB910364
S1131B6040EA9C00B3EBD10F24BFA3EBD10340EABE
S1131B70DC001B0118BF5FEA1C1CE0D1FD2A3FF604
S1131B8050AF8B4240EBC25008BF20F001007047B9
S1131B900CF0004C4CEA50207F32C2BFD2F1FF035C
S1131BA040EAC250704740F400004FF00003013A8D
S1131BB037E792F0000F00F0004C02BF400010F431
S1131BC0000F013AF9D040EA0C0093F0000F01F045
S1131BD0004C02BF490011F4000F013BF9D041EA67
S1131BE00C0195E70CEAD15392EA0C0F08D142029A
S1131BF07FF47DAF93EA0C0F7FF470AF084676E76D
S1131C0093EA0C0F04D14B023FF44CAF08466EE745
S1131C1030F0004C18BF31F0004CCAD130F0004213
S1131C207FF45CAF31F000437FF43CAF5FE700BF6B
S1131C304FF0FF3C06E000BF4FF0010C02E000BF94
S1131C404FF0010C4DF804CD4FEA40024FEA410336
S1131C507FEA226C18BF7FEA236C11D001B052EAEC
S1131C60530C18BF90EA010F58BFB2EB030088BFB2
S1131C70C81738BF6FEAE17018BF40F00100704721
S1131C807FEA226C02D15FEA402C05D17FEA236C03
S1131C90E4D15FEA412CE1D05DF8040B704700BF4A
S1131CA0844608466146FFE70FB5FFF7C9FF0028E1
S1131CB048BF10F1000F0FBD4DF808EDFFF7F4FF1A
S1131CC00CBF012000205DF808FB00BF4DF808EDB3
S1131CD0FFF7EAFF34BF012000205DF808FB00BFD6
S1131CE04DF808EDFFF7E0FF94BF012000205DF8F8
S1131CF008FB00BF4DF808EDFFF7D2FF94BF0120A9
S1131D0000205DF808FB00BF4DF808EDFFF7C8FFA1
S1131D1034BF012000205DF808FB00BF002301460A
S1131D201A46184600F02EB908B5074B044613B1FD
S1131D30002100F08BF9054B1868836A03B19847BA
S1131D40204600F08FFD00BF4D20000070290000E8
S1131D5038B5074D074C641BA4101CB9BDE83840C6
S1131D6000F088BD013C55F824309847F5E700BFE2
S1131D700402FF1F0802FF1F70B50D4E0D4CA41B7B
S1131D80A4100025A54209D10B4E0C4C00F06CFDAB
S1131D90A41BA4100025A54205D170BD56F825301A
S1131DA098470135EEE756F8253098470135F2E7B4
S1131DB00002FF1F0002FF1F0002FF1F0402FF1F9B
S1131DC0024B0146186800F057B800BF9C01FF1F82
S1131DD0024B0146186800F00BB800BF9C01FF1FBE
S1131DE002440346934200D1704703F8011BF9E70C
S1131DF030B500292ED051F8042C0B1F1D49002AA0
S1131E00B8BF9B180A680C4612B95A600B6030BD03
S1131E109A420CD9186819188A4204BF116852688A
S1131E205A6004BF09181960236030BD0A4651681E
S1131E3009B19942FAD9146815199D420BD11B684E
S1131E402344D0188142136004D10868034413600A
S1131E504B68536030BD02D90C23036030BD1C684D
S1131E601819814204BF08684968596004BF001901
S1131E701860EEE73002FF1F70B5CD1C25F0030596
S1131E8008350C2D38BF0C25002D064603DA0C232B
S1131E903360002070BDA942F9D81E480468214669
S1131EA0C9B91D4C23681BB9304600F037F82060CF
S1131EB02946304600F032F8431CE8D0C31C23F016
S1131EC00304A04205D0211A304600F027F801305F
S1131ED0DDD0256007E00A68521B17D40B2A0CD901
S1131EE00A608D508C1804F10B00221D20F00700AD
S1131EF0821A0ED05142A15070BD8C420DBF62684F
S1131F004A686260026018BF0C46ECE70C464968F8
S1131F10C6E770BD3002FF1F3402FF1F38B5064C00
S1131F20002305460846236000F08EFC431C02D1C2
S1131F30236803B12B6038BD7403FF1F0EB400B5D2
S1131F409CB04FF402711DABADF8141002900690D2
S1131F506FF000410A48049107914FF6FF7153F85E
S1131F60042BADF816100068019302A900F038F9AB
S1131F70029B00221A701CB05DF804EB03B070479A
S1131F809C01FF1F2DE9F8432C4D2C6807460E4693
S1131F909146984634B92A4B2A4C2C6013B11B68DD
S1131FA0C4F8883063681F2B3EDD274B1BB94FF004
S1131FB0FF30BDE8F8838C20FFF702FF04460028B9
S1131FC0F5D000232A68026043602860C0F8883096
S1131FD00FB34FF48470FFF7F3FE0028E7D000231B
S1131FE0C0F80031C0F80431C4F88800626840F8D1
S1131FF022900123934000EB8201D0F800211A4380
S1132000022FC0F80021C1F8808002BFD0F804215B
S11320101343C0F8043163685A1C02336260002021
S113202044F82360BDE8F883002FF4D0D4F8880086
S11320300028DBD1044B002BB9D0CAE7C402FF1F30
S1132040000000003802FF1FC11D00002DE9F74FFA
S1132050DFF8D0A001908946DAF80040DFF8C480A8
S113206014B903B0BDE8F08F6568D4F888606F1EBA
S1132070AD0006EB050B04352544002F14DA284B7C
S1132080002BEED062682368002A45D1002B43D090
S1132090C8F8003016B13046FFF79AFE2046FFF725
S11320A097FED8F80040DBE7B9F1000F09D026B954
S11320B0013FABF1040B043DDFE7DBF87C209145E5
S11320C0F6D161682A6801398F4216BF0023676020
S11320D02B60002AECD06368009336B10123D6F854
S11320E0000103FA07F1014209D190476268009B9D
S11320F09342B1D1D8F800209442D9D0ACE7D6F8B5
S11321000401014204D15BF8041C01989047EDE7F7
S11321105BF8040C9047E9E7A0461C46A0E700BF23
S1132120D11D0000C402FF1F2DE9F0478E689E42B6
S113213082460C469146984635D88A8912F4906FA7
S113214031D0256809696F1A6569022305EB4505D5
S113215095FBF3F508F101033B449D4238BF1D464E
S1132160530531D52946FFF787FE064650B90C239F
S1132170CAF80030A38943F04003A3814FF0FF3035
S1132180BDE8F0873A46216900F00AFBA38923F4ED
S1132190906343F08003A381266165613E44ED1B97
S11321A02660A5604646464528BF4646324649460F
S11321B0206800F000FBA3689B1BA36023681E44F7
S11321C026600020BDE8F0872A4600F00EFB064694
S11321D00028E1D121695046FFF70AFEC7E7000055
S11321E02DE9F04F9DB0804603938B891C060D4664
S11321F016460FD50B696BB94021FFF73DFE2860E9
S1132200286128B90C23C8F800304FF0FF30C5E02E
S113221040236B610023099320238DF82930302358
S11322208DF82A304FF0010B37463C4614F8013B39
S1132230002B3CD1B7EB060A0BD053463246294655
S11322404046FFF771FF013000F0A380099B53441F
S113225009933B78002B00F09C8000234FF0FF3261
S113226004930793059206938DF853301A9305222D
S11322702178504800F044FA671C049BD8B9D90669
S113228044BF20228DF853201A0744BF2B228DF817
S1132290532022782A2A16D0079A00210A2027469A
S11322A001343B78303B092B51D9C9B111E0252BBE
S11322B0C0D02746B9E73F4A801A0BFA00F018430A
S11322C004903C46D3E7039A111D12680391002A37
S11322D001DB079204E0524243F0020307920493A5
S11322E03B782E2B0ED17B782A2B07F1010132D1BA
S11322F0039B1A1D1B680392002BB8BF4FF0FF33DA
S1132300023705932C4C39780322204600F0F8F963
S113231038B14023001B03FA00F0049B03430493E9
S11323200137397825488DF8281006227E1C00F0E4
S1132330E7F9002835D0224BFBB9039B073323F080
S1132340070308330393099B4B4409936CE700FB91
S113235002320121A3E70023059318460A240F46FD
S113236001313A78303A092A03D9002BCAD00590B2
S1132370C8E704FB00200123F1E703AB00932A46DE
S1132380104B04A94046AFF30080B0F1FF3F8146F3
S1132390D9D1AB895B063FF538AF09981DB0BDE8CC
S11323A0F08F03AB00932A46064B04A9404600F085
S11323B081F8EAE7762900007C29000080290000E2
S11323C000000000292100002DE9F04791461F4636
S11323D08A680B69DDF820809342B8BF1346C9F8B8
S11323E0003091F8432006460C4612B10133C9F877
S11323F000302368990642BFD9F800300233C9F887
S11324000030256815F0060507D104F1190AE368C0
S1132410D9F800209B1A9D4229DB94F843302268A6
S1132420003318BF012392062ED404F14302394627
S11324303046C047013021D02368E568D9F8002030
S113244003F00603042B08BFAD1AA36822690CBF6E
S113245025EAE57500259342C4BF9B1AED184FF099
S113246000091A344D451BD10020BDE8F087012333
S1132470524639463046C047013003D14FF0FF3051
S1132480BDE8F0870135C2E7E1185A1C302081F815
S11324904300224494F8451082F843100233C4E701
S11324A00123224639463046C0470130E6D009F1BF
S11324B00109D7E72DE9F04317460A7E85B06E2A55
S11324C0984606460C460C9B01F1430E00F0BC8076
S11324D01AD8632A2ED00AD8002A00F0C880582AB5
S11324E000F08A8004F1420584F842202AE0642A3C
S11324F001D0692AF6D121681A6811F0800F23D01F
S1132500111D1960136827E0732A00F0B48008D8FD
S11325106F2A2AD0702AE5D10A6842F020020A60A4
S113252003E0752A21D0782ADCD1782284F845206A
S11325306E4964E01A6801F14205111D19601368BF
S113254084F842300123A3E011F0400F02F10401AA
S11325501960D7D0B2F90030002B03DA2D225B4288
S113256084F8432062490A2217E02068196810F0B1
S1132570800F03D0081D18600B6806E010F0400FB0
S113258001F104001860F7D00B8859496F2A14BF71
S11325900A220822002084F843006568A560002D03
S11325A0C0F29C80206820F004002060002B3FD102
S11325B0002D40F095807546082A0BD12368DA0770
S11325C008D5236962689A42DEBF302305F8013CCE
S11325D005F1FF35AEEB05032361CDF800803B46E2
S11325E003AA21463046FFF7EFFE013055D14FF0E4
S11325F0FF3005B0BDE8F08381F845203C492268EE
S1132600186812F0800F00F104051D6001D0036802
S113261002E05506FBD50388D00744BF42F02002F0
S113262022601BB9226822F0200222601022B1E746
S11326307546B3FBF2F002FB1033CB5C05F8013DA9
S113264003460028F5D1B7E708681A68496910F00D
S1132650800F04D0101D18601368196007E010F093
S1132660400F02F1040018601368F6D019800023AB
S113267023617546B1E71A68111D1960156862680F
S11326800021284600F03CF808B1401B60606368F4
S11326902361002384F843309FE723692A4639469F
S11326A03046C0470130A2D023689B0707D50025D8
S11326B004F11909E368039A9B1A9D4205DBE0685B
S11326C0039B9842B8BF184693E701234A4639460C
S11326D03046C04701308AD00135EBE7002BA7D143
S11326E00B7884F8423004F1420565E7982900002C
S11326F08729000000000000000000000000000026
S113270001F0FF01102A2BDB10F0070F08D010F89E
S1132710013B013A8B422DD010F0070F42B3F6D1A2
S1132720F0B441EA012141EA014122F007047FF0BB
S113273000070023F0E80256083C85EA010586EA12
S1132740010685FA47F5A3FA87F586FA47F6A5FA4E
S113275087F68EB9EED1F0BC01F0FF0102F007025A
S113276032B110F8013B013A83EA010313B1F8D105
S11327700020704701387047002D06BF35460338E6
S1132780073815F0010F07D1013015F4807F02BF1F
S1132790013015F4C03F0130F0BC0138704700BF70
S11327A010B5431E0A44914200D110BD11F8014BEB
S11327B003F8014FF7E7884210B501EB020303D891
S11327C0421E99420CD110BD9842F9D28118D21AF6
S11327D0D34200D110BD13F8014D01F8014DF7E7C4
S11327E011F8014B02F8014FEBE7F8B50746144620
S11327F00E4621B91146BDE8F840FFF73DBB22B9AA
S1132800FFF7F6FA25462846F8BD00F014F884428E
S11328100FD921463846FFF72FFB05460028F2D092
S113282031462246FFF7BCFF31463846FFF7E0FA4F
S1132830E9E73546E7E751F8040C0028A0F1040065
S1132840BCBF0B58C0187047044A05491368002BD5
S113285008BF0B461844106018467047C802FF1F93
S11328607803FF1FFEE700BFF8B500BFF8BC08BC43
S11328709E467047F8B500BFF8BC08BC9E4670473A
S11328804D65617375726564204E65726E73742054
S113289056202566092050756D7043757272656EF9
S11328A07420444320257509204D65617375726554
S11328B0642050756D7043757272656E743A20258C
S11328C0662009204465736972656450756D7043B0
S11328D0757272656E7420256620200D00202020FC
S11328E020202020202020202020202020202020E4
S11328F020202020202020202020202020202020D4
S113290020202020202020202020202020202020C3
S113291020202020202020202020202020202020B3
S113292020202020202020202020202020202020A3
S11329302020202020202020202020202020202093
S11329402020202020202020202020202020202083
S11329502020202020202020202020202020202073
S113296020202020202020200D0060634E4F0000F6
S1132970A001FF1F4300232D302B2000686C4C0066
S1132980656667454647003031323334353637386B
S113299039414243444546003031323334353637C9
S11329A0383961626364656600000000000000005D
S10B29B0B8DAFF7F010000000A
S11329B8000E2707A001FF1F000000000000000010
S11329C800000000000000000000000000000000FB
S11329D8000000000000000074290000000000004E
S11329E800000000000000000000000000000000DB
S11329F800000000000000000000000000000000CB
S1132A0800000000000000000000000000000000BA
S1132A18000000000000000035040000110400005C
S9030D8966
