S01500006275696C642F7769646562616E642E73313962
S113000000000320510D0000810D0000850D00004B
S1130010890D00008D0D0000910D0000000000000E
S1130020000000000000000000000000950D00002A
S1130030990D0000000000009D0D0000A10D0000BE
S1130040A50D0000A50D0000A50D0000A50D0000E4
S1130050A50D0000A50D0000A50D0000A50D0000D4
S1130060A50D0000A50D0000A50D0000A50D0000C4
S1130070A50D0000A50D0000A50D0000A50D0000B4
S1130080A50D0000A50D0000A50D0000A50D0000A4
S1130090A50D0000A50D0000A50D0000A50D000094
S11300A0A50D0000A50D0000A50D0000A50D000084
S11300B0A50D0000A50D0000A50D0000A50D000074
S11300C0A50D0000A50D0000A50D0000A50D000064
S11300D0A50D0000A50D0000A50D0000A50D000054
S11300E0A50D0000A50D0000CD080000A50D000021
S11300F0A50D0000A50D0000A50D0000A50D000034
S1130100BD050000DD050000A50D0000A50D0000E3
S1130110A50D0000A50D0000A50D0000A50D000013
S1130120A50D0000A50D0000A50D0000A50D000003
S1130130A50D0000A50D0000A50D0000A50D0000F3
S1130140A50D0000A50D0000A50D0000A50D0000E3
S1130150A50D0000A50D0000A50D0000A50D0000D3
S1130160A50D0000F90C0000A50D0000A50D000070
S1130170A50D0000A50D0000A50D0000A50D0000B3
S1130180A50D0000A50D0000A50D0000A50D0000A3
S10B0190A50D0000A50D0000FF
S1130400FFFFFFFFFFFFFFFFFFFFFFFFFEFFFFFFF9
S1130410064B1A7810B51C4632B9054B13B1054882
S1130420AFF300800123237010BD00BF0802FF1F3B
S1130430000000000C230000074B10B51BB1074956
S11304400748AFF300800748036823B1064B13B194
S1130450BDE81040184710BD000000000C02FF1F4B
S11304600C2300000802FF1F00000000134B002BA8
S113047008BF114B9D46A3F5803A00218B460F46D9
S11304801148124A121A01F0A5F90D4B002B00D0A5
S113049098470C4B002B00D0984700200021040003
S11304A00D000B4801F032F901F05EF9200029003B
S11304B000F01EFA01F030F90000080000000320EB
S11304C000000000000000000802FF1F7803FF1F67
S11304D041170000344B4CF22052DA814DF62812B9
S11304E0DA814FF4E9721A8003F52C3341F23801B2
S11304F09A78100742BF9A7842F008029A702B4B00
S11305005A5842F400725A5041F244024FF0927128
S1130510995041F204015A5842F480325A501A68F0
S113052042F440221A60224A936C23F0807323F42D
S1130530E06393641F4B20225A701F4A802111707C
S11305401A7B02F0FC021A73BA221A70DA7802F0EB
S11305501F02DA7013221A7118225A719A79D1067D
S1130560FCD49979134A01F00C010829F9D15823D4
S1130570537193790F4903F00C03082BF9D18A794D
S11305800C4B5206FBD52A221A709A7902F00C02FF
S11305900C2AFAD1054941F248028B5823F00F0383
S11305A043F009038B50704700200540007004405D
S11305B000900440004006400050064008B572B662
S11305C0044B0122C3F80C21034B1B68984762B605
S11305D008BD00BF00700340CC02FF1F08B572B60F
S11305E0044B0122C3F81C21034B5B68984762B695
S11305F008BD00BF00700340CC02FF1F2DE9F0418D
S1130600089E016004464260314683600698079F55
S113061000F086FD31460546384600F081FD4FF076
S11306207E51804601F042F8414618B1284600F058
S113063035FF02E0284600F07DFE3946054601F00C
S113064035F830B93146284601F012F810B1354674
S113065000E03D460A9BE56027616661A361099B52
S1130660E3610B9B2362002363620020BDE8F081F9
S11306702DE9F843044600690D4600F0F9FF08B17E
S1130680256905E06169284600F0F2FF00B165695B
S11306906169284600F044FD0546206961692069C6
S11306A0616900F03DFD0146284600F0F7FE014671
S11306B0E06800F035FDD4F82490276A6062216870
S11306C0054600F037FED4F804800646494628461D
S11306D000F026FD414600F02DFE314600F022FDDB
S11306E0A66805460021384600F024FE314600F095
S11306F021FE294600F016FD4FF07E5100F012FD58
S11307004FF07C5100F016FE0546A069E16900F047
S113071007FD294600F00EFEE16900F003FDA16922
S1130720054600F0C3FF08B1A56905E0E169284664
S113073000F09EFF00B1E5692846BDE8F88338B5AE
S1130740044600690D4600F093FF08B1256905E0F1
S11307506169284600F08CFF00B16569616928462B
S113076000F0DEFC05462069616900F0D9FC014611
S1130770284600F093FEE060002038BD1B4B9842F1
S113078030B531D1A3F50C3341F23401184C5A5829
S113079042F480625A5041F238015A5842F480625D
S11307A05A5003F540534FF440721A645A64114B83
S11307B02168186003224FF41633B1FBF3F1CDB274
S11307C04570027002700270027002700270027052
S11307D0457022685201B2FBF3F3A3EB411303F01B
S11307E0FF0383720C23C37030BD00BF00A006401A
S11307F09801FF1FD402FF1FC37803F07F03C37067
S113080003791B06FCD5C171704710B50A460978F7
S1130810044629B12046FFF7EFFF12F8011FF8E75D
S113082010BD0000F0B5244B41F23C02995841F050
S11308308071995041F23802995841F4606199509D
S113084003F580431D494FF48862DA604B6D1C4AFE
S113085043F004034B6500234B60CB641268B2FB86
S1130860F0F1B1F5803F0FD301254FF6FE7605FA7E
S113087003F4B1FBF4F7B74203D90133082BF6D1E3
S113088000E00BB90120F0BD0E49B2FBF4F20860A0
S1130890B2FBF0F00C49094A086043F048031360C6
S11308A00B689360D36943F02803D361D36923F0C1
S11308B00403D361F0BD00BF007004400080034016
S11308C09801FF1F2C02FF1F2402FF1F064A136812
S11308D023F080031360054B1A68FE2A9EBF1A6832
S11308E001321A60704700BF008003402802FF1FD6
S11308F02DE9F04F4FF47A70ADF2044DFFF792FFFB
S113090041F23802B54BB64E9B58B44AB54DDFF8A8
S113091028A3B54CB54FDFF824B3DFF8249341F294
S1130920380143F410535350736943F4C0037361A3
S11309306B6943F080636B61AD4B4FF480729A65D1
S11309405A6503F540534FF000089A66736943F4FF
S1130950C00373616B6943F080636B61AB6843F000
S11309608063AB60B36843F40013B36000F07AF9BA
S1130970A04B0293A04B0193A04B059442460497CD
S1130980CDF80C8000934FF07C5153469C48FFF700
S113099035FE9C4B01939C4B05944246CDF8088050
S11309A000934FF07E514346CDF810A0CDF80CB023
S11309B09648FFF723FE4346424605940497CDF834
S11309C00C80CDF800804FF07E51CDF808B0CDF802
S11309D004A08F488F4C904FFFF710FE8F4A904928
S11309E08A48C4F80080002313608E4A3B60136079
S11309F0FFF73EFE0146C9F800008548C4F800A090
S1130A00FFF79DFE21688248FFF732FE00F058FE92
S1130A107D4938607D48FFF72BFE0146C9F8000088
S1130A207B48C4F800A0FFF78AFE21687848FFF7E6
S1130A301FFE00F045FE4FF07E5138607348FFF70B
S1130A4017FE0146C9F800007148C4F800A0FFF77A
S1130A5076FE21686E48FFF70BFE00F031FE704908
S1130A6038606A48FFF704FE0146C9F80000684888
S1130A70C4F800B0FFF763FE21686548FFF7F8FD8E
S1130A8000F01EFE604938606048FFF7F1FD014642
S1130A90C9F800005E48C4F800B0FFF750FE2168B2
S1130AA05B48FFF7E5FD00F00BFE4FF07E51386028
S1130AB05648FFF7DDFD0146C9F800005448C4F864
S1130AC000B0FFF73CFE21685148FFF7D1FD00F06C
S1130AD0F7FD534938604D48FFF7CAFD0146C9F890
S1130AE000004B48C4F80080FFF729FE21684848FD
S1130AF0FFF7BEFD00F0E4FD434938604348FFF7CB
S1130B00B7FD0146C9F800004148C4F80080FFF76A
S1130B1016FE21683E48FFF7ABFD00F0D1FD4FF013
S1130B207E5138603948FFF7A3FD0146C9F800003B
S1130B303748C4F80080FFF702FE21683448DFF824
S1130B400481394CFFF794FD00F0BAFD41F23802FC
S1130B50224B38609B58214A344841F2380143F40F
S1130B6010535350736943F4C00373616B6943F0CA
S1130B7080636B611E4B4FF480729A655A6503F56E
S1130B8040534FF416519A66736943F4C00373617A
S1130B906B6943F080636B61FFF7F0FDAB6843F072
S1130BA08063AB60D8F8000000F062FA8246D9F89E
S1130BB000008B4600F05CFACDE902ABCDE90401FC
S1130BC03B68009352465B46194906A800F0B4FE00
S1130BD018492068FFF719FE36E000BF0070044092
S1130BE040F00F4000F10F406F12833A0000C842FA
S1130BF000A00440000020420000F0420000A04297
S1130C000C03FF1F333353406666E63E3C03FF1F6D
S1130C10DC02FF1F3803FF1F3403FF1F0403FF1F01
S1130C20CDCCCC3D6403FF1FD402FF1F00A00640BF
S1130C30E4210000412200000AD7233C0AD723BC48
S1130C400803FF1FD802FF1F06A92068FFF7DDFD78
S1130C50F36843F48003F3606B6843F080636B6074
S1130C609CE700BF10B541F230021E491E488B5864
S1130C7043F000638B50002303601C4B6C229A608A
S1130C8080225A621A46546A184B14F08004FAD12E
S1130C90D96C9A6C0A44596C0A44196C0A44D96B8D
S1130CA00A44996B0A44520842F40042DA62D96E4B
S1130CB09A6E0A44596E0A44196E0A44D96D0A445C
S1130CC0996D0A44520842F400421A6304600268AF
S1130CD007498A5C1A60074B4FF400729A6062B647
S1130CE010BD00BF007004406803FF1F00B00B403C
S1130CF0CE22000000E100E030B572B6104B11487E
S1130D001A68042A1A4602DC1968002905DA002345
S1130D1013601368C25C0C4B10E01C680A490B4D4D
S1130D20621C1A600A6992B225F814201A68825C5F
S1130D300A6062B61A68042A01D100221A6030BD22
S1130D406803FF1FCE22000000B00B406C03FF1F9E
S1130D500649074A074B9B1A03DD043BC858D05089
S1130D60FBDC0548804705480047000018230000C5
S1130D709801FF1F0802FF1FD50400006D04000046
S1130D80FEE700BFFEE700BFFEE700BFFEE700BFCF
S1130D90FEE700BFFEE700BFFEE700BFFEE700BFBF
S1130DA0FEE700BFFEE700BF81F0004102E000BFA4
S1130DB083F0004330B54FEA41044FEA430594EA17
S1130DC0050F08BF90EA020F1FBF54EA000C55EA52
S1130DD0020C7FEA645C7FEA655C00F0E2804FEA23
S1130DE05454D4EB5555B8BF6D420CDD2C4480EA05
S1130DF0020281EA030382EA000083EA010180EA35
S1130E00020281EA0303362D88BF30BD11F0004F82
S1130E104FEA01314FF4801C4CEA113102D04042B8
S1130E2061EB410113F0004F4FEA03334CEA1333F3
S1130E3002D0524263EB430394EA050F00F0A7800B
S1130E40A4F10104D5F1200E0DDB02FA0EFC22FA06
S1130E5005F2801841F1000103FA0EF2801843FAFA
S1130E6005F359410EE0A5F120050EF1200E012AEB
S1130E7003FA0EFC28BF4CF0020C43FA05F3C01829
S1130E8051EBE37101F0004507D54FF0000EDCF1A2
S1130E90000C7EEB00006EEB0101B1F5801F1BD34B
S1130EA0B1F5001F0CD349085FEA30004FEA3C0C4F
S1130EB004F101044FEA445212F5800F80F09A8045
S1130EC0BCF1004F08BF5FEA500C50F1000041EB49
S1130ED0045141EA050130BD5FEA4C0C404141EB4D
S1130EE0010111F4801FA4F10104E9D191F0000F74
S1130EF004BF01460020B1FA81F308BF2033A3F1F7
S1130F000B03B3F120020CDA0C3208DD02F1140CED
S1130F10C2F10C0201FA0CF021FA02F10CE002F128
S1130F201402D8BFC2F1200C01FA02F120FA0CFC21
S1130F30DCBF41EA0C019040E41AA2BF01EB04516A
S1130F40294330BD6FEA04041F3C1CDA0C340EDC68
S1130F5004F11404C4F1200220FA04F001FA02F3AB
S1130F6040EA030021FA04F345EA030130BDC4F169
S1130F700C04C4F1200220FA02F001FA04F340EA5E
S1130F800300294630BD21FA04F0294630BD94F00F
S1130F90000F83F4801306BF81F480110134013DF6
S1130FA04EE77FEA645C18BF7FEA655C29D094EA67
S1130FB0050F08BF90EA020F05D054EA000C04BFE5
S1130FC01946104630BD91EA030F1EBF00210020D0
S1130FD030BD5FEA545C05D14000494128BF41F06F
S1130FE0004130BD14F580043CBF01F5801130BDD3
S1130FF001F0004545F0FE4141F470014FF000005E
S113100030BD7FEA645C1ABF194610467FEA655C0E
S11310101CBF0B46024650EA013406BF52EA0335B0
S113102091EA030F41F4002130BD00BF90F0000F9E
S113103004BF0021704730B54FF4806404F13204DA
S11310404FF000054FF0000150E700BF90F0000F93
S113105004BF0021704730B54FF4806404F13204BA
S113106010F0004548BF40424FF000013EE700BF8A
S113107042004FEAE2014FEA31014FEA02701FBF1A
S113108012F07F4393F07F4F81F06051704792F0EC
S1131090000F14BF93F07F4F704730B54FF4607466
S11310A001F0004521F0004120E700BF50EA0102B1
S11310B008BF704730B54FF000050AE050EA01025E
S11310C008BF704730B511F0004502D5404261EBCE
S11310D041014FF4806404F132045FEA915C3FF40F
S11310E0DCAE4FF003025FEADC0C18BF03325FEAA8
S11310F0DC0C18BF033202EBDC02C2F1200300FA5D
S113110003FC20FA02F001FA03FE40EA0E0021FA81
S113111002F11444C1E600BF80F0004002E000BFC9
S113112081F0004142001FBF5FEA410392EA030FCE
S11311307FEA226C7FEA236C6AD04FEA1262D2EB18
S11311401363C1BFD218414048404140B8BF5B421D
S1131150192B88BF704710F0004F40F4000020F0B6
S11311607F4018BF404211F0004F41F4000121F0CC
S11311707F4118BF494292EA030F3FD0A2F1010216
S113118041FA03FC10EB0C00C3F1200301FA03F154
S113119000F0004302D5494260EB4000B0F5000F77
S11311A013D3B0F1807F06D340084FEA310102F136
S11311B00102FE2A51D2B1F1004F40EBC25008BFE8
S11311C020F0010040EA03007047490040EB0000B2
S11311D010F4000FA2F10102EDD1B0FA80FCACF1E1
S11311E0080CB2EB0C0200FA0CF0AABF00EBC250E0
S11311F052421843BCBFD0401843704792F0000FCE
S113120081F4000106BF80F400000132013BB5E720
S11312104FEA41037FEA226C18BF7FEA236C21D096
S113122092EA030F04D092F0000F08BF08467047FB
S113123090EA010F1CBF0020704712F07F4F04D1C9
S1131240400028BF40F00040704712F100723CBFDC
S113125000F50000704700F0004343F0FE4040F406
S1131260000070477FEA226216BF08467FEA2363C4
S11312700146420206BF5FEA412390EA010F40F4AF
S1131280800070474FF0000304E000BF10F00043FB
S113129048BF40425FEA000C08BF704743F09643E2
S11312A001464FF000001CE050EA010208BF7047FD
S11312B04FF000030AE000BF50EA010208BF704784
S11312C011F0004302D5404261EB41015FEA010C99
S11312D002BF84460146002043F0B64308BFA3F191
S11312E08053A3F50003BCFA8CF2083AA3EBC25373
S11312F010DB01FA02FC634400FA02FCC2F1200292
S1131300BCF1004F20FA02F243EB020008BF20F0C8
S11313100100704702F1200201FA02FCC2F120022E
S113132050EA4C0021FA02F243EB020008BF20EA23
S1131330DC7070474FF0FF0C1CEAD0521EBF1CEA51
S1131340D15392EA0C0F93EA0C0F6FD01A4480EA3F
S1131350010C400218BF5FEA41211ED04FF0006328
S113136043EA501043EA5111A0FB01310CF0004054
S1131370B1F5000F3EBF490041EAD3715B0040EA7A
S1131380010062F17F02FD2A1DD8B3F1004F40EB4A
S1131390C25008BF20F00100704790F0000F0CF01D
S11313A0004C08BF49024CEA502040EA51207F3AE1
S11313B0C2BFD2F1FF0340EAC250704740F40000BC
S11313C04FF00003013A5DDC12F1190FDCBF00F0AD
S11313D000407047C2F10002410021FA02F1C2F15B
S11313E0200200FA02FC5FEA310040F1000053EAF7
S11313F04C0308BF20EADC70704792F0000F00F045
S1131400004C02BF400010F4000F013AF9D040EA4A
S11314100C0093F0000F01F0004C02BF490011F4DE
S1131420000F013BF9D041EA0C018FE70CEAD153DC
S113143092EA0C0F18BF93EA0C0F0AD030F0004C5C
S113144018BF31F0004CD8D180EA010000F0004010
S1131450704790F0000F17BF90F0004F084691F0CE
S1131460000F91F0004F14D092EA0C0F01D1420208
S11314700FD193EA0C0F03D14B0218BF084608D1D1
S113148080EA010000F0004040F0FE4040F400001B
S1131490704740F0FE4040F4400070474FF0FF0CAE
S11314A01CEAD0521EBF1CEAD15392EA0C0F93EAF5
S11314B00C0F69D0A2EB030280EA010C49024FEA47
S11314C0402037D04FF0805343EA111143EA101300
S11314D00CF000408B4238BF5B0042F17D024FF4B8
S11314E0000C8B4224BF5B1A40EA0C00B3EB510F93
S11314F024BFA3EB510340EA5C00B3EB910F24BF7C
S1131500A3EB910340EA9C00B3EBD10F24BFA3EB00
S1131510D10340EADC001B0118BF5FEA1C1CE0D1C8
S1131520FD2A3FF650AF8B4240EBC25008BF20F07B
S1131530010070470CF0004C4CEA50207F32C2BFCF
S1131540D2F1FF0340EAC250704740F400004FF06C
S11315500003013A37E792F0000F00F0004C02BF9D
S1131560400010F4000F013AF9D040EA0C0093F067
S1131570000F01F0004C02BF490011F4000F013BC1
S1131580F9D041EA0C0195E70CEAD15392EA0C0F29
S113159008D142027FF47DAF93EA0C0F7FF470AF61
S11315A0084676E793EA0C0F04D14B023FF44CAFA4
S11315B008466EE730F0004C18BF31F0004CCAD139
S11315C030F000427FF45CAF31F000437FF43CAF75
S11315D05FE700BF4FF0FF3C06E000BF4FF0010C97
S11315E002E000BF4FF0010C4DF804CD4FEA400279
S11315F04FEA41037FEA226C18BF7FEA236C11D0C3
S113160001B052EA530C18BF90EA010F58BFB2EB75
S1131610030088BFC81738BF6FEAE17018BF40F0F5
S1131620010070477FEA226C02D15FEA402C05D1A9
S11316307FEA236CE4D15FEA412CE1D05DF8040B2E
S1131640704700BF844608466146FFE70FB5FFF7C1
S1131650C9FF002848BF10F1000F0FBD4DF808ED79
S1131660FFF7F4FF0CBF012000205DF808FB00BF6A
S11316704DF808EDFFF7EAFF34BF012000205DF8C4
S113168008FB00BF4DF808EDFFF7E0FF94BF012011
S113169000205DF808FB00BF4DF808EDFFF7D2FF0E
S11316A094BF012000205DF808FB00BF4DF808ED51
S11316B0FFF7C8FF34BF012000205DF808FB00BF1E
S11316C04FEA4002B2F1FE4F0FD34FF09E03B3EB4B
S11316D012620DD94FEA002343F0004310F0004F8B
S11316E023FA02F018BF404270474FF000007047E1
S11316F012F1610F01D1420205D110F0004008BF80
S11317006FF0004070474FF000007047002301461F
S11317101A46184600F034B908B5074B044613B10D
S1131720002100F089F9054B1868836A03B19847D2
S1131730204600F049FD00BF391A0000D422000001
S113174038B5074B074CE41AA4101D4624B1013CDC
S113175055F824309847F9E7BDE8384000F03CBD1F
S11317600402FF1F0802FF1F70B50E4B0E4CE41A53
S1131770A41000251E46A54204D056F825309847EB
S11317800135F8E700F022FD084C094BE41AA410D7
S113179000251E46A54204D056F825309847013549
S11317A0F8E770BD0002FF1F0002FF1F0402FF1FC5
S11317B00002FF1F024B0146186800F059B800BF31
S11317C0FC01FF1F024B0146186800F00BB800BF74
S11317D0FC01FF1F02440346934202D003F8011B9D
S11317E0FAE7704730B500293ED051F8042C0B1F9E
S11317F01E49002AB8BF9B180A680C4612B95A60E1
S11318000B6030BD9A420ED919685818824204BF41
S1131810106852685A6004BF09181960236030BD0B
S1131820994203D80A4651680029F9D11468151958
S11318309D420AD11B682344D0188142136013D1FE
S11318400868034413604B680DE002D90C2303605D
S113185030BD18681C18A14204BF0C68496859605F
S113186004BF00191860536030BD00BF3402FF1F6D
S113187070B5CD1C25F0030508350C2D38BF0C259B
S1131880002D064603DA0C233360002070BDA94204
S1131890F9D81F4B1C681A462146A1B10B685B1B83
S11318A00ED40B2B03D90B60CC18CD501EE08C4208
S11318B00DBF63684B686360136018BF0C4615E086
S11318C00C464968E9E7134C23681BB9304600F01D
S11318D023F820602946304600F01EF8431CD2D07D
S11318E0C41C24F00304A0420AD1256004F10B00B7
S11318F0231D20F00700C31A09D05A42E25070BDDC
S1131900211A304600F008F80130EED1BBE770BD73
S11319103402FF1F3002FF1F38B5064C0023054672
S11319200846236000F042FC431C02D1236803B143
S11319302B6038BD7403FF1F0EB400B59CB04FF488
S113194002711DABADF81410029006906FF00041C7
S11319500A48049107914FF6FF7153F8042BADF830
S113196016100068019302A900F02AF9029B0022D4
S11319701A701CB05DF804EB03B07047FC01FF1F44
S11319802DE9F843294D2C6806460F4691469846A2
S11319900CB9274C2C6063681F2B14DD254B1BB935
S11319A04FF0FF30BDE8F8838C20FFF703FF0446B7
S11319B00028F5D000232A68026043602860C0F83C
S11319C088304EB306E03EB3D4F8880078B9194B9A
S11319D0002BE5D04FF48470FFF7ECFE0028DFD035
S11319E00023C0F80031C0F80431C4F888006268EC
S11319F040F822900123934000EB8201D0F80021AB
S1131A001A43022EC0F80021C1F8808002BFD0F82A
S1131A1004211343C0F8043163685A1C0233626022
S1131A20002044F82370BDE8F88300BFC402FF1F00
S1131A303802FF1FB51700002DE9F74F89460190C2
S1131A40304B1C6898464FF0010B002C56D065684B
S1131A50D4F888606F1EAD0006EB050A04352544F2
S1131A60002F36DBB9F1000F09D026B9013FAAF1E6
S1131A70040A043DF4E7DAF87C209145F6D1616864
S1131A802A6801398F4216BF002367602B60002A41
S1131A90ECD0636800932EB1D6F800010BFA07F17D
S1131AA0014201D190470BE0D6F80401014204D170
S1131AB05AF8041C0198904702E05AF8040C904725
S1131AC06268009B9342BBD1D8F800209442CDD0E9
S1131AD0B6E70D4B93B16268236862B95BB1C8F88D
S1131AE0003016B13046FFF76DFE2046FFF76AFE60
S1131AF0D8F80040A9E7A0461C46A6E703B0BDE815
S1131B00F08F00BFC402FF1FC51700002DE9F04786
S1131B108E689E4282460C46914698463ED88A89F3
S1131B2012F4906F3AD0256809696F1A6569022327
S1131B3005EB450595FBF3F57B1C43449D4238BFFB
S1131B401D4653050FD52946FFF792FE064698B168
S1131B503A46216900F0D3FAA38923F4906343F051
S1131B608003A38113E02A4600F0EFFA064670B919
S1131B7021695046FFF736FE0C23CAF80030A389CA
S1131B8043F04003A3814FF0FF30BDE8F0872661A6
S1131B9065613E44ED1B2660A5604646464528BF68
S1131BA0464632464946206800F0B4FAA3689B1BB7
S1131BB0A36023681E4426600020BDE8F08700006F
S1131BC02DE9F04F9DB0804603938B891C060D468A
S1131BD016460DD50B695BB94021FFF749FE286015
S1131BE0286118B90C23C8F80030CDE040236B619C
S1131BF00023099320238DF82930DFF89CB130238A
S1131C008DF82A3037463C4614F8013B1BB9B7EB34
S1131C10060910D003E0252BF9D02746F3E74B46FD
S1131C20324629464046FFF771FF013000F0A78095
S1131C30099B4B4409933B78002B00F0A0800023C0
S1131C404FF0FF3204930793059206938DF85330B7
S1131C501A930126052221784E4800F041FA671CA8
S1131C60049B38B14B4A801A06FA00F018430490DA
S1131C703C46EFE7D90644BF20228DF853201A07CB
S1131C8044BF2B228DF8532022782A2A03D0079AA6
S1131C9000210A200BE0039A111D12680391002A07
S1131CA010DA524243F00200079204900BE02746F8
S1131CB001343B78303B092B03D800FB023201216D
S1131CC0F5E701B107923B782E2B1ED17B782A2BA6
S1131CD00AD1039B1A1D1B680392002BB8BF4FF057
S1131CE0FF330237059310E000230593781C19464F
S1131CF00A24074601303A78303A092A03D804FB0B
S1131D0001210123F5E703B1059103223978224823
S1131D1000F0E6F940B14023CBEB000003FA00F0F9
S1131D20049B18430490013739781C488DF8281017
S1131D3006227E1C00F0D4F988B1194B33B9039BF9
S1131D40073323F007030833039314E003AB009332
S1131D502A46144B04A94046AFF3008007E003ABC6
S1131D6000932A460F4B04A9404600F093F8B0F1C3
S1131D70FF3F824603D0099B5344099342E7AB8952
S1131D805B0601D4099801E04FF0FF301DB0BDE8B7
S1131D90F08F00BFD8220000DE220000E222000003
S1131DA0000000000D1B00002DE9F04791461F467E
S1131DB00A698B68DDF820809342B8BF1346C9F8DE
S1131DC0003091F8432006460C4612B10133C9F89D
S1131DD000302368990642BFD9F800300233C9F8AD
S1131DE00030256815F0060510D104F1190A07E042
S1131DF00123524639463046C04701301AD00135D6
S1131E00E368D9F800209B1A9D42F1DB94F8433033
S1131E102268003318BF012392060FD5E1185A1C1B
S1131E20302081F84300224494F8451082F843108E
S1131E30023303E04FF0FF30BDE8F08704F14302C2
S1131E4039463046C0470130F4D02268D9F80050F2
S1131E50E36802F00602042A08BF5D1B2269A36836
S1131E600CBF25EAE57500259342C4BF9B1AED1803
S1131E704FF000091A344D4509D001232246394652
S1131E803046C0470130D5D009F10109F3E70020FD
S1131E90BDE8F0872DE9F04317460A7E85B06E2A27
S1131EA0984606460C460C9B01F1430E00F0AE80AA
S1131EB011D8632A22D009D8002A00F0BB80582AFE
S1131EC040F0CA8081F84520834955E0642A1ED039
S1131ED0692A1CD0C0E0732A00F0B08009D86F2AA8
S1131EE02ED0702A40F0B8800A6842F020020A60BE
S1131EF03EE0752A24D0782A3AD0ADE01A6801F180
S1131F004205111D1960136884F84230A8E0216865
S1131F101A6811F0800F02D0111D196008E011F049
S1131F20400F02F10401196002D0B2F9003000E060
S1131F301368002B3CDA2D225B4284F8432037E0FF
S1131F4021681A6811F0800F02D0111D196007E092
S1131F5011F0400F02F10401196001D0138800E070
S1131F601368227E5C496F2A14BF0A2208221BE0F0
S1131F7078225A4984F845202268186812F0800FA4
S1131F8000F104051D6003D1550601D5038800E066
S1131F900368D00744BF42F0200222601BB92268C4
S1131FA022F0200222601022002084F8430001E085
S1131FB049490A226568A560002D08DB206820F0E5
S1131FC0040020602BB9002D7DD175460CE0002B58
S1131FD079D07546B3FBF2F002FB1033CB5C05F805
S1131FE0013D03460028F5D1082A0BD12368DA07FE
S1131FF008D5236962689A42DEBF302305F8013CA4
S113200005F1FF35C5EB0E0323612EE008681A685D
S1132010496910F0800F03D0101D1860136808E0A0
S113202010F0400F02F104001860136801D0198009
S113203000E0196000232361754616E01A68111D3B
S11320401960156862680021284600F049F808B153
S1132050401B6060636804E004F1420584F8422098
S113206001232361002384F84330CDF800803B46EC
S113207003AA21463046FFF797FE013002D14FF004
S1132080FF3026E023692A4639463046C0470130EE
S1132090F5D023689B0710D5002504F1190907E042
S11320A001234A4639463046C0470130E7D001355E
S11320B0E368039A9B1A9D42F2DBE068039B984213
S11320C0B8BF184605E00B7884F8423004F14205A5
S11320D08AE705B0BDE8F083E9220000FA22000097
S11320E010B5C9B202449042034606D01C788C4213
S11320F000F10100F7D1184610BD002010BD10B545
S1132100431E0A44914204D011F8014B03F8014FD5
S1132110F8E710BD884210B501EB020301D8421E56
S11321200BE09842FBD28118D21AD34204D013F8A0
S1132130014D01F8014DF8E710BD994204D011F8A2
S1132140014B02F8014FF8E710BDF8B507461546F4
S11321500E4621B91146BDE8F840FFF789BB1AB90C
S1132160FFF740FB2846F8BD00F015F885420ED96C
S113217029463846FFF77CFB044650B131462A46CF
S1132180FFF7BDFF31463846FFF72CFB01E0304630
S1132190F8BD2046F8BD51F8040C0028BEBF09184C
S11321A051F8043CC018043870470000044A05493B
S11321B01368002B08BF0B4618441060184670477C
S11321C0C802FF1F7803FF1FFEE700BFF8B500BF7A
S11321D0F8BC08BC9E467047F8B500BFF8BC08BC04
S11321E09E4670474D65617375726564204E6572D5
S11321F06E73742056202566092050756D704375E2
S11322007272656E7420444320257509204D656102
S113221073757265642050756D7043757272656E66
S1132220743A2025662009204465736972656450F8
S1132230756D7043757272656E7420256620200D6D
S113224000202020202020202020202020202020AA
S1132250202020202020202020202020202020207A
S1132260202020202020202020202020202020206A
S1132270202020202020202020202020202020205A
S1132280202020202020202020202020202020204A
S1132290202020202020202020202020202020203A
S11322A0202020202020202020202020202020202A
S11322B0202020202020202020202020202020201A
S11322C02020202020202020202020200D006063BA
S11322D04E4F43009C01FF1F232D302B2000686CC0
S11322E04C00656667454647003031323334353635
S11322F0373839414243444546003031323334356E
S11323003637383961626364656600000000000096
S10B23105CE1FF7F0100000005
S1132318000E270700000000000000000000000075
S113232800000000000000000000000000000000A1
S113233800000000D222000000000000000000009D
S11323480000000000000000000000000000000081
S11323580000000000000000000000000000000071
S11323680000000000000000000000000000000061
S1132378000000009C01FF1F390400001104000044
S9030D519E
